:100000000C9463000C947E040C944E040C948B00AE
:100010000C948B000C948B000C948B000C948B0034
:100020000C948B000C948B000C948B000C94E304C8
:100030000C948B000C948B000C948B000C948B0014
:100040000C94D6020C948B000C94F1080C94CB0801
:100050000C948B000C948B000C948B000C948B00F4
:100060000C9420030C948B00000000002400270057
:100070002A0000000000250028002B0000000000DE
:1000800023002600290004040404040404040202DA
:100090000202020203030303030301020408102007
:1000A0004080010204081020010204081020000012
:1000B0000008000201000003040700000000000027
:1000C0000000420FA10B11241FBECFEFD8E0DEBF0E
:1000D000CDBF11E0A0E0B1E0E4E2F5E202C005909E
:1000E0000D92A039B107D9F724E0A0E9B1E001C031
:1000F0001D92A036B207E1F710E0C2E6D0E004C0DE
:100100002197FE010E944411C136D107C9F70E9410
:10011000CB0B0C9485120C94000085ED8093BC00F1
:100120008091BC0084FDFCCF10925D020895409147
:10013000E101262F30E0240F311D21323105DCF49E
:1001400020915D022430C9F4FC0180E090E0861724
:1001500058F43091E1012191DC01AF53BE4FA30F60
:10016000B11D2C930196F3CF8091E101680F60934C
:10017000E10180E0089581E0089582E00895E09132
:10018000BF01F091C001309729F010925F021092E8
:10019000810209940895CF93DF93AC01E091BD01F2
:1001A000F091BE013097F1F090910E0280910D0216
:1001B0009817C0F090E0292F30E02617370754F445
:1001C000D901A356BE4FEA01C20FD31F88818C9379
:1001D0009F5FF1CF10920E0260930D02CB01DF9171
:1001E000CF910994DF91CF9108950895E0910E0287
:1001F00080910D02E81730F4F0E0E356FE4F808165
:1002000090E008958FEF9FEF089590910E028091F6
:100210000D02981750F4E92FF0E0E356FE4F2081CD
:1002200030E09F5F90930E0202C02FEF3FEFC901B5
:10023000089580910D0290E020910E02821B910999
:100240000895CF92DF92EF92FF920F931F93CF9377
:10025000DF937C01262F972F8A0180915E028823ED
:1002600091F0C62FD72F6E01C40ED51ECC15DD051B
:1002700071F06991D701ED91FC910190F081E02D31
:10028000C7010995F3CF642F822F0E949700C80100
:10029000DF91CF911F910F91FF90EF90DF90CF9062
:1002A0000895CF93DF931F92CDB7DEB76983209176
:1002B0005E022223D1F020918102203240F021E021
:1002C00030E0FC013383228380E090E015C0809110
:1002D0005F02E82FF0E0E05AFD4F998190838F5F35
:1002E00080935F028093810205C061E0CE01019698
:1002F0000E94970081E090E00F90DF91CF910895E8
:10030000089580E090E00895CF92DF92EF92FF92FF
:100310000F931F93CF93DF93FC01418D528D638D1B
:10032000748D3FB7F8948091040290910502A091DA
:100330000602B091070226B5A89B05C02F3F19F011
:100340000196A11DB11D3FBFBA2FA92F982F882755
:10035000820F911DA11DB11DC2E0880F991FAA1F18
:10036000BB1FCA95D1F7818F928FA38FB48F818DD8
:10037000928DA38DB48D841B950BA60BB70B468570
:10038000578560897189481759076A077B0710F4F8
:10039000108E4EC0308D2389321708F046C0208D54
:1003A000C489D58934E0239FC00DD11D11248883D1
:1003B0009983AA83BB8342815381648175810285BD
:1003C0001385248535856A017B01C01AD10AE20AAA
:1003D000F30A8C159D05AE05BF0538F1C680D780A0
:1003E000E084F1840C0D1D1D2E1D3F1D08171907FB
:1003F0002A073B07D0F0208DC689D78934E0239F98
:10040000C00DD11D112484179507A607B70748F022
:10041000AC01BD01C816D906EA06FB0610F4B70107
:10042000A601488359836A837B83808D8F5F808F89
:10043000DF91CF911F910F91FF90EF90DF90CF90C0
:100440000895FC0126813781620F731F8481958195
:100450008617970738F08281938177836683820FAE
:10046000931F089580E090E00895833081F028F490
:10047000813099F08230A1F008958730A9F088305A
:10048000B9F08430D1F4809180008F7D03C08091D9
:1004900080008F7780938000089584B58F7702C0A5
:1004A00084B58F7D84BD08958091B0008F7703C09F
:1004B0008091B0008F7D8093B00008951F93CF93FB
:1004C000DF93282F30E0F901E255FF4F8491F901C5
:1004D000E656FF4FD491F901EA57FF4FC491CC2360
:1004E000C9F0162F81110E943502EC2FF0E0EE0FBB
:1004F000FF1FEE58FF4FA591B4918FB7F8941111DB
:1005000005C09C91ED2FE095E92302C0EC91ED2B05
:10051000EC938FBFDF91CF911F910895CF93DF931D
:1005200090E0FC01E656FF4F2491FC01EA57FF4F93
:100530008491882361F190E0880F991FFC01E859AC
:10054000FF4FC591D491FC01EE58FF4FA591B49196
:10055000611109C09FB7F894888120958223888310
:10056000EC912E230BC0623061F49FB7F894388170
:10057000822F809583238883EC912E2B2C939FBF11
:1005800006C08FB7F894E8812E2B28838FBFDF91A8
:10059000CF9108952FB7F8946091090270910A02E3
:1005A00080910B0290910C022FBF08951F920F9221
:1005B0000FB60F9211242F933F938F939F93AF9376
:1005C000BF938091090290910A02A0910B02B09111
:1005D0000C023091080223E0230F2D3720F40196FE
:1005E000A11DB11D05C026E8230F0296A11DB11D56
:1005F000209308028093090290930A02A0930B02B1
:10060000B0930C028091040290910502A091060221
:10061000B09107020196A11DB11D80930402909331
:100620000502A0930602B0930702BF91AF919F917C
:100630008F913F912F910F900FBE0F901F901895A3
:100640001F920F920FB60F9211242F933F934F9347
:100650005F936F937F938F939F93AF93BF93EF932A
:10066000FF938091B900887F803609F49CC068F5BB
:10067000883209F45BC090F4803109F454C038F436
:10068000882309F4F6C0883009F44DC0F6C08831DB
:1006900009F44CC0803209F45DC0EFC0803409F425
:1006A00068C048F4803309F455C0883309F0E5C0C8
:1006B00080935B02D8C0803509F44FC0883509F4B7
:1006C0005DC0883409F0D9C0D6C0883909F4C7C0E4
:1006D000A8F4883709F467C038F4883609F463C091
:1006E000803709F460C0C9C0883809F4B8C08039BF
:1006F00009F45FC0803809F0C0C05BC0803B09F4DA
:1007000086C038F4803A09F466C0883A09F47FC09C
:10071000B4C0803C09F4A7C0883C09F4A4C0883B5D
:1007200009F48AC0AAC08091380210C090915A0280
:1007300080915902981770F5E0915A0281E08E0F6E
:1007400080935A02F0E0E75CFD4F80818093BB000C
:1007500085EC86C080935B028EC0E0915A0281E0F6
:100760008E0F80935A028091BB00F0E0E75CFD4F52
:10077000808390915A02809159026EC0E0915A0292
:1007800081E08E0F80935A028091BB00F0E0E75C1D
:10079000FD4F808380915C0281116DC081E0809368
:1007A000370284EA61C083E080935D021092030205
:1007B000CFCF80910302803208F051C0E091030254
:1007C00081E08E0F809303028091BB00F0E0ED5139
:1007D000FE4F8083BDCF85EC8093BC0010925D02FC
:1007E00080910302803230F4E0910302F0E0ED5199
:1007F000FE4F10826091030270E0E0910F02F091D1
:10080000100283EE91E009951092030236C084E055
:1008100080935D021092E2011092E101E0911102D9
:10082000F091120209958091E101811105C081E0EA
:100830008093E1011092C101E091E20181E08E0F0D
:100840008093E201F0E0EF53FE4F80818093BB0084
:100850009091E2018091E101981708F479CF85E841
:100860008093BC000AC085EC8093BC0010925D02AE
:1008700004C010925B020E948D00FF91EF91BF9126
:10088000AF919F918F917F916F915F914F913F9128
:100890002F910F900FBE0F901F9018951F920F92DF
:1008A0000FB60F9211242F933F934F935F936F9343
:1008B0007F938F939F93AF93BF93EF93FF93809119
:1008C0002D0390912E03009741F0DC01ED91FC91F6
:1008D0000190F081E02D61E00995FF91EF91BF91CA
:1008E000AF919F918F917F916F915F914F913F91C8
:1008F0002F910F900FBE0F901F9018951F920F927F
:100900000FB60F9211242F933F934F935F936F93E2
:100910007F938F939F93AF93BF93EF93FF938091B8
:100920002B0390912C03009741F0DC01ED91FC9199
:100930000190F081E02D60E00995FF91EF91BF916A
:10094000AF919F918F917F916F915F914F913F9167
:100950002F910F900FBE0F901F901895FC01908162
:100960009C3080F5818128E830E0281B310987FD23
:100970003395220F331F220F331F621773077CF04A
:10098000828128E532E0281B310987FD3395220F4B
:10099000331F220F331F621773070CF49B01225081
:1009A0003109220F331F4FB7F894892F90E0FC01D3
:1009B000EE0FFF1F8E0F9F1FFC01E15DFC4F328386
:1009C00021834FBF08951F920F920FB60F921124EB
:1009D0002F933F934F935F936F937F938F939F9347
:1009E000AF93BF93EF93FF9380919C0187FF05C066
:1009F00010928500109284001BC020919C01022E51
:100A0000000C330B8091530390E02817390784F4CE
:100A100080919C01082E000C990BFC01EE0FFF1F2A
:100A20008E0F9F1FFC01E15DFC4F808186FD15C08C
:100A300080919C018F5F80939C0120919C01022EEC
:100A4000000C330B8091530390E028173907C4F44E
:100A500080919C018C3064F113C080919C01082E20
:100A6000000C990BFC01EE0FFF1F8E0F9F1FFC0166
:100A7000E15DFC4F808160E08F730E945E02D8CF01
:100A80008091840090918500049680349C4918F4EC
:100A900080E49CE905C080918400909185000496D3
:100AA00090938900809388008FEF80939C013BC0D6
:100AB000209184003091850080919C01082E000CCB
:100AC000990BFC01EE0FFF1F8E0F9F1FFC01E15DD4
:100AD000FC4F81819281820F931F909389008093B4
:100AE000880080919C01082E000C990BFC01EE0FF0
:100AF000FF1F8E0F9F1FFC01E15DFC4F808186FF71
:100B000012C080919C01082E000C990BFC01EE0F85
:100B1000FF1F8E0F9F1FFC01E15DFC4F808161E094
:100B20008F730E945E02FF91EF91BF91AF919F91F1
:100B30008F917F916F915F914F913F912F910F9086
:100B40000FBE0F901F9018950F931F93CF93DF93B5
:100B50008B01FC01C281D3812097A9F06A817B813E
:100B60000115110519F06115710521F40617170714
:100B700031F409C0C8010E947C12892B21F0099030
:100B8000D881C02DE9CFCE01DF91CF911F910F9178
:100B900008950E94A405FC01892BF1F184819581BF
:100BA0008330910534F48130910564F4892BA1F1EF
:100BB0002CC08530910524F0059739F5668123C056
:100BC00066812DC00680F781E02D309729F1808164
:100BD000843721F18B3229F08D3221F4319691E066
:100BE00002C0319690E060E0219180ED820F8A3062
:100BF00040F4660F862F880F880F680F6053620FCE
:100C0000F3CF992361F061950AC066817781808571
:100C100091850E94091103C060E001C061E0862F48
:100C20000895FC01A081B1818C918D3051F024F4A4
:100C300089508230B8F505C0803219F08F3219F032
:100C4000089511962CC011968C9111978A3219F043
:100C50008F32D1F008951196B183A083A081B18124
:100C6000CD0101969183808311968C9111978823F1
:100C7000C9F08A3299F712968C9112978F3271F7D8
:100C800013960DC08A3071F2A081B181CD01019619
:100C90009183808311968C918111F4CF03C0B1832D
:100CA000A083C0CF08950F931F93CF93DF931F921C
:100CB000CDB7DEB78C0169830E941106D801ED9192
:100CC000FC91119780816981861305C03196ED935F
:100CD000FC9381E001C080E00F90DF91CF911F91E4
:100CE0000F9108950F931F93CF93DF93EC010C8125
:100CF0001D8102960E941106EA81FB819081973244
:100D000031F1923221F180ED890F8A3070F081EA61
:100D1000890F8C3150F08FEB890F8A3130F09B3284
:100D200021F083ED890F8230F0F52A813B812F5F1E
:100D30003F4F3B832A83EC81FD819F012F5F3F4F13
:100D40003D832C839083EA81FB819081DCCF3196B7
:100D5000FB83EA83EA81FB812081222321F1AF0119
:100D60004F5F5F4F5B834A832917E9F02C3591F47D
:100D70002181A4E5B1E08C91882339F0821303C06E
:100D800011962C9102C01296F6CF222361F0329672
:100D9000FB83EA83EC81FD81AF014F5F5F4F5D8391
:100DA0004C832083D7CFEC81FD81CF0101969D83B9
:100DB0008C831082C801DF91CF911F910F9108950C
:100DC000DB01109749F0ED91FC9111970190F081B2
:100DD000E02DBC01CD01099480E090E008959F9240
:100DE000AF92BF92CF92DF92EF92FF920F931F9339
:100DF000CF93DF9300D000D000D0CDB7DEB7FC0199
:100E00009681911112C08091940181110BC01092B2
:100E1000910110929001109293011092920181E041
:100E20008093940100E911E09BC07F01915096836B
:100E300000811181B80184E090E00E94E0060097F3
:100E400039F0FC0111830083138212828C0111C0DE
:100E50008091940181110BC0109291011092900128
:100E6000109293011092920181E08093940100E925
:100E700011E06701F2E0CF0ED11C6BE7C6010E94C2
:100E80005306882309F4BFCF6DE7C6010E945306BD
:100E9000811162C086E0982EC7010E9472065C0133
:100EA000892B09F4B0CF6AE3C6010E945306882358
:100EB00009F4A9CF1A821982BE016F5F7F4FC70163
:100EC0000E94160A882309F49ECFB501C8010E942A
:100ED000A405DC01892B59F5F801608171818AE054
:100EE00090E00E94E006DC01892B39F011961C92FB
:100EF0001E9215961C921E921497F801228133813E
:100F00002115310551F0F90180819181009711F08F
:100F10009C01F9CFB183A08303C0F801B383A283FE
:100F2000109709F470CF1396BC92AE921297FE01FF
:100F300031961496892D01900D928A95E1F76DE70F
:100F4000C6010E945306811107C06CE2C6010E94CF
:100F500053068111A1CF57CFF70186818F5F86831A
:100F6000C80126960FB6F894DEBF0FBECDBFDF9145
:100F7000CF911F910F91FF90EF90DF90CF90BF9096
:100F8000AF909F900895CF92DF92EF92FF920F93D0
:100F90001F93CF93DF936C017A018B01C0E0D0E007
:100FA000CE15DF0589F0D8016D918D01D601ED9147
:100FB000FC910190F081E02DC6010995892B11F477
:100FC0007E0102C02196ECCFC701DF91CF911F9126
:100FD0000F91FF90EF90DF90CF900895FC01538D1B
:100FE000448D252F30E0842F90E0821B930B541703
:100FF00010F0CF96089501970895FC01918D828D90
:10100000981761F0828DDF01A80FB11D5D968C915C
:10101000928D9F5F9F73928F90E008958FEF9FEF67
:101020000895FC01918D828D981731F0828DE80F23
:10103000F11D858D90E008958FEF9FEF0895FC01DD
:10104000918D228D892F90E0805C9F4F821B9109AA
:101050008F739927089582E892E00E941F0821E08B
:10106000892B09F420E0822F0895FC01848DDF0193
:10107000A80FB11DA35ABF4F2C91848D90E001960B
:101080008F739927848FA689B7892C93A089B189FA
:101090008C9180648C93938D848D981306C0028804
:1010A000F389E02D80818F7D80830895EF92FF92F8
:1010B0000F931F93CF93DF93EC0181E0888F9B8D7B
:1010C0008C8D981305C0E889F989808185FD24C03D
:1010D000F62E0B8D10E00F5F1F4F0F731127E02EC0
:1010E0008C8DE8120CC00FB607FCFACFE889F9899D
:1010F000808185FFF5CFCE010E943508F1CF8B8D21
:10110000FE01E80FF11DE35AFF4FF0820B8FEA89D1
:10111000FB898081806207C0EE89FF896083E8894E
:10112000F98980818064808381E090E0DF91CF91B4
:101130001F910F91FF90EF900895CF93DF93EC01F3
:10114000888D8823C9F0EA89FB89808185FD05C0E7
:10115000A889B9898C9186FD0FC00FB607FCF5CF21
:10116000808185FFF2CFA889B9898C9185FFEDCF69
:10117000CE010E943508E7CFDF91CF91089580E03E
:1011800090E0892B29F00E942B0881110C9400001B
:1011900008950E9477121F920F920FB60F9211249A
:1011A0002F933F934F935F936F937F938F939F936F
:1011B000AF93BF93EF93FF9382E892E00E943508CC
:1011C000FF91EF91BF91AF919F918F917F916F911F
:1011D0005F914F913F912F910F900FBE0F901F90F5
:1011E00018951F920F920FB60F9211242F938F9381
:1011F0009F93EF93FF93E0919202F091930280818D
:10120000E0919802F091990282FD12C09081809144
:101210009B028F5F8F7320919C02821751F0E091A7
:101220009B02F0E0EE57FD4F958F80939B0201C02B
:101230008081FF91EF919F918F912F910F900FBE21
:101240000F901F901895CF92DF92EF92FF92BC0102
:10125000603282E078070CF03FC077FD06C0653B46
:1012600071052CF064EB70E002C060E070E08091EA
:101270004E0428E830E06901C81AD10887FDD394EC
:10128000CC0CDD1CCC0CDD1C0D2C000CEE08FF087A
:1012900080914F0428E532E0281B310987FD339502
:1012A000220F331F220F331FC901330FAA0BBB0BB1
:1012B0009C01AD012C193D094E095F09DB010E941B
:1012C000D01024EB30E040E050E00E94A610C20EA7
:1012D000D31EE41EF51EB6018DE494E0FF90EF905E
:1012E000DF90CF900C94AE041F93CF93DF93EC016B
:1012F000162F88818C3008F04EC061E0812F0E944B
:101300008E028881E82FF0E09F01220F331FE20F49
:10131000F31FE15DFC4F1F739081907C192B1083AC
:1013200019821A826CE00E9438119CE0899FB001FA
:10133000112440E050E09A01260F371FF901EE0F0B
:10134000FF1F2E0F3F1FF901E15DFC4F908196FDBD
:1013500016C04F5F5F4F4C30510569F781110FC0C8
:101360001092800082E0809381001092850010929C
:101370008400B19A80916F00826080936F00E88151
:10138000F0E0CF01880F991FE80FF91FE15DFC4FD6
:101390008081806480838881DF91CF911F9108953F
:1013A000EF92FF920F931F93CF93DF937B01FC018A
:1013B00062817381808191810E94A405EC01892B57
:1013C000C1F00C811D810130110559F46E817F81BE
:1013D0006115710531F08BE891E00E947C12892B38
:1013E00041F0015011090230110518F46E817F811E
:1013F00002C060E070E0F70180819181009719F0F0
:101400006115710529F441E08617970731F406C08C
:101410000E947C1241E0892B09F040E0842FDF918B
:10142000CF911F910F91FF90EF9008959F92AF92EF
:10143000BF92CF92DF92EF92FF920F931F93CF93C1
:10144000DF9300D000D000D0CDB7DEB77C016B01B8
:101450005C0182E0A80EB11CC5010E941106D701F3
:101460001296ED91FC91139780818B3521F08B378B
:1014700009F4A8C0B2C0F7018681811112C0809121
:10148000540481110BC01092510410925004109218
:1014900053041092520481E08093540400E514E058
:1014A0007FC08150868300811181B80184E090E083
:1014B0000E94E006009739F0FC011183008313823B
:1014C00012828C0111C08091540481110BC01092C2
:1014D000510410925004109253041092520481E06F
:1014E0008093540400E514E06BE5C5010E945306A7
:1014F000882329F26DE5C5010E945306811149C078
:1015000086E0982E1A821982BE016F5F7F4FC70155
:101510000E94160A882309F4B2CFD8016D917C91FC
:1015200088E090E00E94E006DC01892B39F01196FA
:101530001C921E9213961C921E921297F801228101
:1015400033812115310551F0F90180819181009796
:1015500011F09C01F9CFB183A08303C0F801B383DC
:10156000A283109709F48BCFFE0131961296892D34
:1015700001900D928A95E1F76DE5C5010E94530631
:10158000811107C06CE2C5010E9453068111BACFD8
:1015900076CFD70116968C9116978F5F16968C93FF
:1015A000F80180819181892B11F410E036C086E02A
:1015B00090E0D60111969C938E9313961C930E93F4
:1015C00012972AC0C7010E94EF06FC0120813181D9
:1015D000232B59F327E030E017C011E0873219F0D0
:1015E000823209F010E0C7010E9472060097E9F20A
:1015F000112341F022E030E0F60131832083938310
:1016000082830BC021E030E0D60111963C932E93EB
:1016100013969C938E93129711E0812F26960FB606
:10162000F894DEBF0FBECDBFDF91CF911F910F9118
:10163000FF90EF90DF90CF90BF90AF909F90089574
:101640002091810290918002213208F04AC080915D
:101650005D028111FCCF32E030935D0231E03093C6
:101660005C023FEF30935B0210925A0220935902C2
:10167000A0E6B2E049E352E0FA013E2F341B3217F4
:1016800018F43D913193F9CF10923802209138022D
:10169000990F922B9093380290913702913061F418
:1016A00010923702909138029093BB009091BC0049
:1016B00093FDF8CF95EC01C095EE9093BC0090910E
:1016C0005D029230E1F390915B029F3F79F080914F
:1016D0005B02803241F080915B02803331F084E024
:1016E00005C081E003C082E001C083E010925F0288
:1016F0001092810210925E020895CF93DF93E3EB84
:10170000F0E08491EFE9F0E0D491EBE8F0E0C491EF
:10171000CC2391F081110E943502EC2FF0E0EE0F06
:10172000FF1FE458FF4FA591B491EC91ED2381E0A8
:1017300090E021F480E002C080E090E0DF91CF9162
:10174000089586E391E0909355038093540380912C
:1017500066038230E1F08330B9F0EFEFEE0FFF0B5C
:10176000E55DFC4F118210828091680390916903BE
:10177000009711F00E94DF1180916A0390916B0332
:10178000009741F00C94DF11E998E1E0E7CFE89889
:10179000E0E0E4CF0895CF93DF93CDB7DEB7C45D2B
:1017A000D1090FB6F894DEBF0FBECDBF789484B5D3
:1017B000826084BD84B5816084BD85B5826085BD4D
:1017C00085B5816085BD80916E00816080936E00DB
:1017D00010928100809181008260809381008091CD
:1017E000810081608093810080918000816080937E
:1017F00080008091B10084608093B1008091B0003E
:1018000081608093B00080917A00846080937A0038
:1018100080917A00826080937A0080917A00816062
:1018200080937A0080917A00806880937A00109289
:10183000C100E0919202F091930282E08083E091F6
:101840008E02F0918F021082E0919002F09191024D
:1018500080E1808310929A02E0919602F0919702C3
:1018600086E08083E0919402F0919502808180610E
:101870008083E0919402F09195028081886080835A
:10188000E0919402F0919502808180688083E091DC
:101890009402F091950280818F7D80838AE090E0B0
:1018A000A0E0B0E08093860290938702A093880224
:1018B000B093890281E080932F026091410470E02F
:1018C0008AE494E00E94740960914804709149048C
:1018D0008AE494E00E94AE04609142047091430453
:1018E0006D3D25E0720754F4609144047091450405
:1018F0006C3D85E0780714F06CED75E0709347045B
:10190000609346048AE494E00E94AE0469E070E0CB
:101910008DE494E00E9474098AE590E00E94230916
:1019200062E085E00E948E021092BA008FEB90E098
:1019300090931202809311028BEC90E0909310022E
:1019400080930F0210920E0210920D0210925F020D
:101950001092810210925D0281E080935C021092ED
:10196000370261E082E10E945E0261E083E10E9451
:101970005E028091B9008E7F8093B9008091B9009A
:101980008D7F8093B90088E48093B80085E48093CC
:10199000BC00FE0131961F017E01F9ECEF0EF11C37
:1019A00094EF492E55245394612C712C812C912C49
:1019B00054018A94E3E1F2E02CEF3FEF80E090E005
:1019C00040E050E0BA014193519301962C5F3F4FA4
:1019D0008A30910589F040916703481788F3F8949D
:1019E000A0916A03B0916B03A20FB31F4D915D915B
:1019F0006D917C917894E7CFC0901B02D0901C022F
:101A0000D0923402C0923302009117021091180252
:101A1000109336020093350280911D0290911E02B0
:101A200090933202809331020E947D0B019709F05E
:101A3000DDC080913002823009F0D8C010920401DC
:101A400081E080932F0210920601109205018AE531
:101A5000809307010E94CA02009127021091280278
:101A60002091290230912A02DC01CB01801B910BCD
:101A7000A20BB30B81319742A105B10520F08091F3
:101A80002F028111F4C180910701853B10F490E091
:101A900002C084EB90E00E9423098091050181300F
:101AA000B9F008F4ECC1823041F52091060130E034
:101AB000A4EFB1E00E94FA10A50194010E94A610C3
:101AC000DA01C90184529A4FAF4FBF4F9C011BC02E
:101AD000A0910601B0E02CE03EEF4FEF5FEF0E94D7
:101AE000C510A50194010E94A610DA01C901845213
:101AF0009A4FAF4FBF4F9C0102C020E030E0263428
:101B000085E0380738F0213496E0390728F020E4E2
:101B100036E002C026E435E060914204709143044F
:101B2000261737074CF08091440490914504B90181
:101B3000821793070CF4BC0170934704609346042A
:101B40008AE494E00E94AE040E94CA0200912B0233
:101B500010912C0220912D0230912E02DC01CB013C
:101B6000801B910BA20BB30B84369105A105B10527
:101B7000D0F101E000935E0210E110938002109218
:101B80005F02109281020E94200B811122C080917D
:101B9000040190910501A0910601B0910701809385
:101BA000000190930101A0930201B09303010093FF
:101BB0005E021093800210925F021092810244E054
:101BC00050E060E071E08FE193E00E9421010E940B
:101BD000200B0E94CA0260932B0270932C02809308
:101BE0002D0290932E020E94BF08E4CE0E947D0B2E
:101BF000019751F420913002CC52DF4F2883C45D0D
:101C0000D040213009F4C8C082E08093040181E013
:101C100080932F0282E892E00E941F08181619068E
:101C20000CF018CF81010E94CA0260938A0270935F
:101C30008B0280938C0290938D02E0918202F0914E
:101C400083020284F385E02D82E892E0099597FDF6
:101C500018C08D309105A1F581E793E0F7019183DC
:101C6000808333822282358224828AE08683C70180
:101C70000E94EF068C01FC0180819181892B41F546
:101C80007AC00E94CA0220918A0230918B02409150
:101C90008C0250918D02DC01CB01821B930BA40BB3
:101CA000B50B2091860230918702409188025091B5
:101CB000890282179307A407B50708F4BECFCCCFDB
:101CC000F80181938F01EE15FF0509F0ACCFC4CF69
:101CD000F701118300838FE5C82E81E0D82ED382CF
:101CE000C28284E691E0C053DF4F99838883C05D50
:101CF000D040BE0160537F4FC7010E94D0098823A6
:101D0000A1F06AE671E0C8010E94C905809306014E
:101D100063E771E0C8010E94C905809305016DE782
:101D200071E0C8010E94C9051AC0F7011183008340
:101D3000D382C28286E891E0CE52DF4F99838883B6
:101D4000C25DD040BE016E527F4FC7010E94D009D4
:101D5000882339F010920601109205018AE58093DC
:101D600007010E94CA0260932702709328028093A1
:101D7000290290932A0282E892E00E941F08181616
:101D800019062CF482E892E00E94FD07F4CF10922D
:101D90007803109277035ECECC52DF4FE881C45DAA
:101DA000D040E093040110922F02C601A0E0B0E001
:101DB0009C01AD01285E334041095109A4EBB0E01C
:101DC0000E94C51028EE33E040E050E00E94A610CB
:101DD000209307010D3DF5E01F0700F1CC52DF4FC6
:101DE0008881C45DD04080930501C801A0E0B0E0C7
:101DF0009C01AD012C5D354041095109AFEFB0E0C8
:101E00000E94C5106115E4EF7E07E1E08E079105A1
:101E10002CF5A30192010E94A61021C00C3DF5E013
:101E20001F0701F182E080930501C801A0E0B0E046
:101E30009C01AD01285E334041095109A1E0BFEF8B
:101E40000E94D310643F21E072078105910534F4AC
:101E5000A30192010E94A610215001C02FEF2093F0
:101E60000601F8CD1092050110920601F3CD1092F3
:101E70000601109205018AE58093070104CE2CED3E
:101E800035E041CECF93DF93109285021092840209
:101E900088EE93E0A0E0B0E0809386029093870202
:101EA000A0938802B093890222E131E0309383024B
:101EB0002093820225EC30E030938F0220938E0233
:101EC00024EC30E0309391022093900220EC30E03B
:101ED000309393022093920221EC30E030939502EC
:101EE0002093940222EC30E03093970220939602E4
:101EF00026EC30E0309399022093980210929B02D6
:101F000010929C0210929D0210929E021092220347
:101F1000109221038093230390932403A09325031D
:101F2000B093260384E291E09093200380931F03F3
:101F3000809153038C30A0F491E0980F9093530359
:101F400080934D0490E0FC01EE0FFF1F8E0F9F1F4A
:101F5000FC01E15DFC4F88EB9BE09283818303C031
:101F60008FEF80934D0488EE93E090934704809325
:101F70004604809153038C30A0F491E0980F909325
:101F8000530380934A0490E0FC01EE0FFF1F8E0F75
:101F90009F1FFC01E15DFC4F88EB9BE092838183F6
:101FA00003C08FEF80934A0486E08093410488EE5B
:101FB00093E0909343048093420480ED97E09093E4
:101FC00045048093440484EF91E090934904809306
:101FD000480489E793E0909374038093730388EC3B
:101FE00090E090937603809375031092780310929B
:101FF00077038CE391E0909372038093710386E3FF
:1020000091E0909355038093540388EE93E0A0E011
:10201000B0E08093560390935703A0935803B09376
:10202000590380ED97E0A0E0B0E080935A039093CD
:102030005B03A0935C03B0935D038AE090E0A0E0B3
:10204000B0E080935E0390935F03A0936003B0932E
:10205000610384E398E0A0E0B0E080936203909392
:102060006303A0936403B093650310926C03109212
:102070006D0310926E0310926F03109270038AE04A
:102080008093670388E290E00E944A11EC019093EC
:1020900069038093680388E290E00E944A1190935C
:1020A0006B0380936A0320E030E0FE01E20FF31F30
:1020B0001082118212821382FC01E20FF31F108240
:1020C0001182128213822C5F3F4F2832310569F74B
:1020D00082E08093660360E00E948E0284E593E0D4
:1020E00090932C0380932B038091690083608093ED
:1020F0006900E89ADF91CF91089557FD9058440FF9
:10210000551F59F05F3F71F04795880F97FB991F56
:1021100061F09F3F79F08795089512161306140613
:10212000551FF2CF4695F1DF08C0161617061806A0
:10213000991FF1CF86957105610508940895E8947B
:10214000BB2766277727CB0197F90895052E97FBC4
:102150001EF400940E94BD1057FD07D00E94D810B5
:1021600007FC03D04EF40C94BD105095409530956B
:1021700021953F4F4F4F5F4F0895909580957095F3
:1021800061957F4F8F4F9F4F08950E94FA10A59F32
:10219000900DB49F900DA49F800D911D1124089562
:1021A000B7FF0C94C5100E94C510821B930B0895B5
:1021B000A1E21A2EAA1BBB1BFD010DC0AA1FBB1F4B
:1021C000EE1FFF1FA217B307E407F50720F0A21BBD
:1021D000B30BE40BF50B661F771F881F991F1A942A
:1021E00069F760957095809590959B01AC01BD0154
:1021F000CF010895A29FB001B39FC001A39F700DAE
:10220000811D1124911DB29F700D811D1124911DFE
:1022100008950E94851088F09F5798F0B92F99274C
:10222000B751B0F0E1F0660F771F881F991F1AF0C1
:10223000BA95C9F714C0B13091F00E949F10B1E077
:1022400008950C949F10672F782F8827B85F39F076
:10225000B93FCCF3869577956795B395D9F73EF45A
:1022600090958095709561957F4F8F4F9F4F089502
:10227000991B79E004C0991F961708F0961B881FD8
:102280007A95C9F780950895EE0FFF1F0590F49198
:10229000E02D0994CF93DF938230910510F482E012
:1022A00090E0E0915E04F0915F0420E030E0C0E057
:1022B000D0E0309711F14081518148175907C0F0A3
:1022C0004817590761F482819381209719F09B8305
:1022D0008A832BC090935F0480935E0426C02115EF
:1022E000310519F04217530718F49A01BE01DF01B6
:1022F000EF010280F381E02DDCCF2115310509F1DA
:10230000281B390B2430310590F412968D919C9145
:1023100013976115710521F0FB019383828304C03B
:1023200090935F0480935E04FD01329644C0FD01EA
:10233000E20FF31F81939193225031092D933C9327
:102340003AC020915C0430915D04232B41F420912C
:102350000A0130910B0130935D0420935C042091BD
:102360000801309109012115310541F42DB73EB71F
:1023700040910C0150910D01241B350BE0915C0440
:10238000F0915D04E217F307A0F42E1B3F0B281712
:10239000390778F0AC014E5F5F4F2417350748F0DE
:1023A0004E0F5F1F50935D0440935C0481939193A3
:1023B00002C0E0E0F0E0CF01DF91CF9108950F93EC
:1023C0001F93CF93DF93009709F48CC0FC013297E1
:1023D0001382128200915E0410915F0401151105B1
:1023E00081F420813181820F931F20915C04309110
:1023F0005D042817390779F5F0935D04E0935C04D8
:1024000071C0D80140E050E0AE17BF0750F41296FB
:102410002D913C911397AD012115310509F1D90199
:10242000F3CF9D01DA013383228360817181860FAE
:10243000971F8217930769F4EC0128813981260FD1
:10244000371F2E5F3F4F318320838A819B81938387
:102450008283452B29F4F0935F04E0935E0442C02D
:102460001396FC93EE931297ED01499159919E01B9
:10247000240F351FE217F30771F480819181840FD7
:10248000951F029611969C938E9382819381139649
:102490009C938E931297E0E0F0E0D80112968D9114
:1024A0009C911397009719F0F8018C01F6CF8D914C
:1024B0009C9198012E5F3F4F820F931F20915C04E7
:1024C00030915D042817390769F4309729F4109288
:1024D0005F0410925E0402C01382128210935D04A6
:1024E00000935C04DF91CF911F910F91089581E0DB
:1024F00090E0F8940C948512FB01DC018D91019021
:1025000080190110D9F3990B089510E0C2E6D0E0CC
:1025100004C0FE010E9444112196C336D107C9F7B9
:04252000F894FFCF5D
:102524000000005A0000005A00006004800000000F
:1025340000005608C307EE079D081F08FD07110891
:1025440000000000510121018101F500190105017C
:10255400F6000000000084010000000021020000D9
:102564000000210200000000C90800000000C908A2
:1025740022225C5C6208660C6E0A720D7409004DBE
:102584006F6465004472697665005468726F747490
:102594006C6500446972656374696F6E0053746599
:1025A4006572696E670053746F70006E756C6C00B1
:107E0000112484B714BE81FFF0D085E080938100F7
:107E100082E08093C00088E18093C10086E0809377
:107E2000C20080E18093C4008EE0C9D0259A86E02C
:107E300020E33CEF91E0309385002093840096BBD3
:107E4000B09BFECF1D9AA8958150A9F7CC24DD24C4
:107E500088248394B5E0AB2EA1E19A2EF3E0BF2EE7
:107E6000A2D0813461F49FD0082FAFD0023811F036
:107E7000013811F484E001C083E08DD089C08234E0
:107E800011F484E103C0853419F485E0A6D080C0E4
:107E9000853579F488D0E82EFF2485D0082F10E0AE
:107EA000102F00270E291F29000F111F8ED06801E7
:107EB0006FC0863521F484E090D080E0DECF843638
:107EC00009F040C070D06FD0082F6DD080E0C81688
:107ED00080E7D80618F4F601B7BEE895C0E0D1E017
:107EE00062D089930C17E1F7F0E0CF16F0E7DF06D8
:107EF00018F0F601B7BEE89568D007B600FCFDCFD4
:107F0000A601A0E0B1E02C9130E011968C91119780
:107F100090E0982F8827822B932B1296FA010C0160
:107F200087BEE89511244E5F5F4FF1E0A038BF0790
:107F300051F7F601A7BEE89507B600FCFDCF97BE46
:107F4000E89526C08437B1F42ED02DD0F82E2BD052
:107F50003CD0F601EF2C8F010F5F1F4F84911BD097
:107F6000EA94F801C1F70894C11CD11CFA94CF0C13
:107F7000D11C0EC0853739F428D08EE10CD085E9AC
:107F80000AD08FE07ACF813511F488E018D01DD067
:107F900080E101D065CF982F8091C00085FFFCCF94
:107FA0009093C60008958091C00087FFFCCF809118
:107FB000C00084FD01C0A8958091C6000895E0E648
:107FC000F0E098E1908380830895EDDF803219F02E
:107FD00088E0F5DFFFCF84E1DECF1F93182FE3DFCA
:107FE0001150E9F7F2DF1F91089580E0E8DFEE27F6
:047FF000FF270994CA
:027FFE00040479
:0400000300007E007B
:00000001FF