:100000000C9463000C94B4040C9484040C948B0042
:100010000C948B000C948B000C948B000C948B0034
:100020000C948B000C948B000C948B000C942C057E
:100030000C948B000C948B000C948B000C948B0014
:100040000C940C030C948B000C94A7080C9481085E
:100050000C948B000C948B000C948B000C948B00F4
:100060000C9456030C948B00000000002400270021
:100070002A0000000000250028002B0000000000DE
:1000800023002600290004040404040404040202DA
:100090000202020203030303030301020408102007
:1000A0004080010204081020010204081020000012
:1000B0000008000201000003040700000000000027
:1000C0000000240F060B11241FBECFEFD8E0DEBFC7
:1000D000CDBF11E0A0E0B1E0E0EDF4E202C0059098
:1000E0000D92A438B107D9F724E0A4E8B1E001C02B
:1000F0001D92A035B207E1F710E0C2E6D0E004C0DF
:100100002197FE010E942611C136D107C9F70E942E
:10011000300B0C945B120C940000FC01918D828DCD
:10012000981761F0828DDF01A80FB11D5D968C914B
:10013000928D9F5F9F73928F90E008958FEF9FEF56
:100140000895FC01918D828D981731F0828DE80F12
:10015000F11D858D90E008958FEF9FEF0895FC01CC
:10016000918D228D892F90E0805C9F4F821B910999
:100170008F739927089580E090E0892B29F00E94E1
:10018000080881110C940000089585ED8093BC004F
:100190008091BC0084FDFCCF1092590208954091DB
:1001A000DD01262F30E0240F311D21323105DCF432
:1001B000209159022430C9F4FC0180E090E08617B8
:1001C00058F43091DD012191DC01A354BE4FA30FFF
:1001D000B11D2C930196F3CF8091DD01680F6093E0
:1001E000DD0180E0089581E0089582E0089508959A
:1001F00008950895E0910E0280910D02E81730F401
:10020000F0E0E356FE4F808190E008958FEF9FEF7E
:10021000089590910E0280910D02981750F4E92FE5
:10022000F0E0E356FE4F208130E09F5F90930E0296
:1002300002C02FEF3FEFC901089580910D0290E0B9
:1002400020910E02821B91090895CF92DF92EF92C6
:10025000FF920F931F93CF93DF937C01CB018A0111
:1002600020915A02222389F0EB016B01C40ED51EA6
:10027000CC15DD0569F06991D701ED91FC910190F4
:10028000F081E02DC7010995F3CF642F0E94CF00C4
:10029000C801DF91CF911F910F91FF90EF90DF90F8
:1002A000CF900895CF93DF931F92CDB7DEB76983C8
:1002B00020915A022223D1F020917D02203240F079
:1002C00021E030E0FC013383228380E090E015C020
:1002D00080915B02E82FF0E0E45AFD4F9981908312
:1002E0008F5F80935B0280937D0205C061E0CE0149
:1002F00001960E94CF0081E090E00F90DF91CF91B6
:100300000895089580E090E00895CF92DF92EF92F3
:10031000FF920F931F93CF93DF93FC01418D528D7A
:10032000638D748D3FB7F894809100029091010223
:10033000A0910202B091030226B5A89B05C02F3FF1
:1003400019F00196A11DB11D3FBFBA2FA92F982FFB
:100350008827820F911DA11DB11DC2E0880F991F32
:10036000AA1FBB1FCA95D1F7818F928FA38FB48F1D
:10037000818D928DA38DB48D841B950BA60BB70B2D
:100380004685578560897189481759076A077B0731
:1003900010F4108E4EC0308D2389321708F046C0FD
:1003A000208DC489D58934E0239FC00DD11D11242F
:1003B00088839983AA83BB83428153816481758139
:1003C00002851385248535856A017B01C01AD10A0F
:1003D000E20AF30A8C159D05AE05BF0538F1C6800B
:1003E000D780E084F1840C0D1D1D2E1D3F1D0817C4
:1003F00019072A073B07D0F0208DC689D78934E03A
:10040000239FC00DD11D112484179507A607B70798
:1004100048F0AC01BD01C816D906EA06FB0610F487
:10042000B701A601488359836A837B83808D8F5FE0
:10043000808FDF91CF911F910F91FF90EF90DF9010
:10044000CF900895FC0126813781620F731F84814C
:1004500095818617970738F0828193817783668329
:10046000820F931F089580E090E008958091940199
:1004700081110BC010929101109290011092930182
:100480001092920181E08093940180E991E00895B7
:100490000E944D12FC01848DDF01A80FB11DA35AEB
:1004A000BF4F2C91848D90E001968F739927848F94
:1004B000A689B7892C93A089B1898C9183708064B7
:1004C0008C93938D848D981306C00288F389E02D58
:1004D00080818F7D80830895833081F028F481307E
:1004E00099F08230A1F008958730A9F08830B9F0F2
:1004F0008430D1F4809180008F7D03C08091800092
:100500008F7780938000089584B58F7702C084B57B
:100510008F7D84BD08958091B0008F7703C0809156
:10052000B0008F7D8093B00008951F93CF93DF9329
:10053000282F30E0F901E255FF4F8491F901E6568A
:10054000FF4FD491F901EA57FF4FC491CC23C1F07A
:10055000162F81110E946C02EC2FF0E0EE0FFF1FAE
:10056000EE58FF4FA591B4919FB7F894111104C0B4
:100570008C91D095D82302C0EC91DE2BDC939FBFE9
:10058000DF91CF911F910895CF93DF9390E0FC010D
:10059000E656FF4F2491FC01EA57FF4F84918823D0
:1005A00061F190E0880F991FFC01E859FF4FC59158
:1005B000D491FC01EE58FF4FA591B491611109C08F
:1005C0009FB7F8948881209582238883EC912E230D
:1005D0000BC0623061F49FB7F8948881322F309558
:1005E00083238883EC912E2B2C939FBF06C08FB75B
:1005F000F894E8812E2B28838FBFDF91CF91089547
:100600002FB7F8946091050270910602809107025D
:10061000909108022FBF08951F920F920FB60F926C
:1006200011242F933F938F939F93AF93BF93809108
:10063000050290910602A0910702B0910802309144
:10064000040223E0230F2D3720F40196A11DB11DD4
:1006500005C026E8230F0296A11DB11D20930402B8
:100660008093050290930602A0930702B0930802BC
:100670008091000290910102A0910202B0910302C8
:100680000196A11DB11D8093000290930102A093D9
:100690000202B0930302BF91AF919F918F913F915E
:1006A0002F910F900FBE0F901F9018951F920F92D1
:1006B0000FB60F9211242F933F934F935F936F9335
:1006C0007F938F939F93AF93BF93EF93FF9380910B
:1006D000B900887F803609F49CC068F5883209F437
:1006E0005BC090F4803109F454C038F4882309F4D5
:1006F000F6C0883009F44DC0F6C0883109F44CC00A
:10070000803209F45DC0EFC0803409F468C048F459
:10071000803309F455C0883309F0E5C0809357024F
:10072000D8C0803509F44FC0883509F45DC08834DD
:1007300009F0D9C0D6C0883909F4C7C0A8F48837F1
:1007400009F467C038F4883609F463C0803709F4C7
:1007500060C0C9C0883809F4B8C0803909F45FC0E6
:10076000803809F0C0C05BC0803B09F486C038F413
:10077000803A09F466C0883A09F47FC0B4C0803C6E
:1007800009F4A7C0883C09F4A4C0883B09F48AC0D6
:10079000AAC08091340210C09091560280915502F7
:1007A000981770F5E091560281E08E0F8093560203
:1007B000F0E0EB5CFD4F80818093BB0085EC86C050
:1007C000809357028EC0E091560281E08E0F809395
:1007D00056028091BB00F0E0EB5CFD4F808390916E
:1007E0005602809155026EC0E091560281E08E0F54
:1007F000809356028091BB00F0E0EB5CFD4F80835C
:100800008091580281116DC081E08093330284EAA7
:1008100061C083E0809359021092FF01CFCF809195
:10082000FF01803208F051C0E091FF0181E08E0F9E
:100830008093FF018091BB00F0E0E152FE4F808386
:10084000BDCF85EC8093BC00109259028091FF01CE
:10085000803230F4E091FF01F0E0E152FE4F10826F
:100860006091FF0170E0E0910902F0910A028FEDC2
:1008700091E009951092FF0136C084E080935902FF
:100880001092DE011092DD01E0910B02F0910C025A
:1008900009958091DD01811105C081E08093DD0122
:1008A0001092BD01E091DE0181E08E0F8093DE01A8
:1008B000F0E0E354FE4F80818093BB009091DE0115
:1008C0008091DD01981708F479CF85E88093BC000A
:1008D0000AC085EC8093BC001092590204C01092AB
:1008E00057020E94C500FF91EF91BF91AF919F9178
:1008F0008F917F916F915F914F913F912F910F90C9
:100900000FBE0F901F9018951F920F920FB60F9267
:1009100011242F933F934F935F936F937F938F9304
:100920009F93AF93BF93EF93FF938091290390918F
:100930002A03009741F0DC01ED91FC910190F081D8
:10094000E02D61E00995FF91EF91BF91AF919F91EB
:100950008F917F916F915F914F913F912F910F9068
:100960000FBE0F901F9018951F920F920FB60F9207
:1009700011242F933F934F935F936F937F938F93A4
:100980009F93AF93BF93EF93FF9380912703909131
:100990002803009741F0DC01ED91FC910190F0817A
:1009A000E02D60E00995FF91EF91BF91AF919F918C
:1009B0008F917F916F915F914F913F912F910F9008
:1009C0000FBE0F901F901895FC0190819C3088F508
:1009D000818128E830E0281B310987FD3395220FFB
:1009E000331F220F331F6217730784F0828148E59B
:1009F00052E0481B510987FD5395440F551F440F82
:100A0000551F9B01461757070CF49A0122503109D4
:100A1000220F331F4FB7F894892F90E0FC01EE0F9F
:100A2000FF1F8E0F9F1FFC01E55DFC4F328321836A
:100A30004FBF0895892B79F41092800082E0809353
:100A400081001092850010928400B19A80916F000D
:100A5000826080936F0008951F920F920FB60F92DD
:100A600011242F933F934F935F936F937F938F93B3
:100A70009F93AF93BF93EF93FF9380919C0187FF68
:100A800005C010928500109284001BC020919C012B
:100A9000022E000C330B80914F0390E0281739078A
:100AA00084F480919C01082E000C990BFC01EE0F40
:100AB000FF1F8E0F9F1FFC01E55DFC4F808186FDAF
:100AC00015C080919C018F5F80939C0120919C01B7
:100AD000022E000C330B80914F0390E0281739074A
:100AE000C4F480919C018C3064F113C080919C010E
:100AF000082E000C990BFC01EE0FFF1F8E0F9F1F9D
:100B0000FC01E55DFC4F808160E08F730E949502DF
:100B1000D8CF8091840090918500049680349C49C0
:100B200018F480E49CE905C08091840090918500D0
:100B3000049690938900809388008FEF80939C01A6
:100B40003BC0209184003091850080919C01082E4B
:100B5000000C990BFC01EE0FFF1F8E0F9F1FFC0175
:100B6000E55DFC4F81819281820F931F90938900F4
:100B70008093880080919C01082E000C990BFC0149
:100B8000EE0FFF1F8E0F9F1FFC01E55DFC4F808164
:100B900086FF12C080919C01082E000C990BFC016D
:100BA000EE0FFF1F8E0F9F1FFC01E55DFC4F808144
:100BB00061E08F730E949502FF91EF91BF91AF9119
:100BC0009F918F917F916F915F914F913F912F9165
:100BD0000F900FBE0F901F9018950F931F93CF93F8
:100BE000DF938B01FC01C281D3812097A9F06A8138
:100BF0007B810115110519F06115710521F460174C
:100C0000710731F409C0C8010E945212892B21F0EA
:100C10000990D881C02DE9CFCE01DF91CF911F91EE
:100C20000F9108950E94ED05FC01892BD9F1848173
:100C300095818330910518F40197A0F109C08530A2
:100C4000910520F0059739F5668123C066812DC096
:100C50000680F781E02D309729F18081843721F1DA
:100C60008B3229F08D3221F4319691E002C0319619
:100C700090E060E0219180ED820F8A3040F4660FB1
:100C8000862F880F880F680F6053620FF3CF992368
:100C900061F061950AC066817781808591850E94A7
:100CA000EB1003C060E001C061E0862F0895FC01F5
:100CB000A081B1818C918D3051F024F48950823023
:100CC000B8F505C0803219F08F3219F008951196E9
:100CD0002CC011968C9111978A3219F08F32D1F075
:100CE00008951196B183A083A081B181CD010196B1
:100CF0009183808311968C9111978823C9F08A3251
:100D000099F712968C9112978F3271F713960DC046
:100D10008A3071F2A081B181CD01019691838083E7
:100D200011968C918111F4CF03C0B183A083C0CF01
:100D300008951F93CF93DF93EC01162F0E9457065F
:100D4000E881F9818081181305C03196F983E88321
:100D500081E001C080E0DF91CF911F9108950F9352
:100D60001F93CF93DF93EC010C811D8102960E94AB
:100D70005706EA81FB818081873231F1823221F18D
:100D800090ED980F9A3070F091EA980F9C3150F0E6
:100D90009FEB980F9A3130F08B3221F093ED980F42
:100DA0009230F0F52A813B812F5F3F4F3B832A83AE
:100DB000EC81FD819F012F5F3F4F3D832C8380831A
:100DC000EA81FB818081DCCF3196FB83EA83EA8173
:100DD000FB819081992321F19F012F5F3F4F3B833E
:100DE0002A839817E9F09C3591F49181A8E4B1E049
:100DF0002C91222339F0921303C011969C9102C0CA
:100E00001296F6CF992361F03296FB83EA83EC8148
:100E1000FD819F012F5F3F4F3D832C839083D7CF70
:100E2000EC81FD81CF0101969D838C831082C801E6
:100E3000DF91CF911F910F910895809188018111C9
:100E40000BC01092850110928401109287011092BC
:100E5000860181E08093880184E891E00895DB01B8
:100E6000109749F0ED91FC9111970190F081E02DE0
:100E7000BC01CD01099480E090E00895AF92BF924B
:100E8000CF92DF92EF92FF920F931F93CF93DF9356
:100E900000D000D000D0CDB7DEB77C01DC011696C3
:100EA0008C91882309F48EC08150F70186830081DC
:100EB0001181B80184E090E00E942F07009709F4A7
:100EC00084C0DC0111961C930E9313961C921E9203
:100ED00012978C016701B2E0CB0ED11C6BE7C60103
:100EE0000E949906882309F46DC06DE7C6010E942F
:100EF0009906811161C0C7010E94AF065C01892B70
:100F000009F460C06AE3C6010E949906882309F4C7
:100F100059C01A821982BE016F5F7F4FC7010E94BC
:100F20009A09882309F44EC0B501C8010E94ED0555
:100F3000009761F5F801608171818AE090E00E947C
:100F40002F07009741F0DC0111961C921E92159616
:100F50001C921E921497D8011296ED91FC91139752
:100F6000309751F0208131812115310511F0F901BF
:100F7000F9CF9183808303C0F80193838283009724
:100F800009F1DC011396BC92AE92129726E0FE01A5
:100F90003196DC01149601900D922A95E1F76DE7E8
:100FA000C6010E949906811107C06CE2C6010E9429
:100FB00099068111A0CF06C0F70186818F5F8683D5
:100FC000C80106C00E94360203C00E94360281CFCB
:100FD00026960FB6F894DEBF0FBECDBFDF91CF913E
:100FE0001F910F91FF90EF90DF90CF90BF90AF9047
:100FF0000895FC01538D448D252F30E0842F90E01F
:10100000821B930B541710F0CF9608950197089503
:101010008EE792E00E94AF0021E0892B09F420E0E6
:10102000822F0895EF92FF920F931F93CF93DF9338
:10103000EC0181E0888F9B8D8C8D981305C0E88929
:10104000F989808185FD26C0F62E0B8D10E00F5F9B
:101050001F4F0F731127E02E8C8DE8120CC00FB6B6
:1010600007FCFACFE889F989808185FFF5CFCE01A9
:101070000E944A02F1CF8B8DFE01E80FF11DE35A69
:10108000FF4FF0829FB7F8940B8FEA89FB8980812C
:1010900080620AC09FB7F894EE89FF896083E8896F
:1010A000F98980818370806480839FBF81E090E0B4
:1010B000DF91CF911F910F91FF90EF900895CF9303
:1010C000DF93EC01888D8823C9F0EA89FB89808150
:1010D00085FD05C0A889B9898C9186FD0FC00FB622
:1010E00007FCF5CF808185FFF2CFA889B9898C9163
:1010F00085FFEDCFCE010E944A02E7CFDF91CF916D
:1011000008951F920F920FB60F9211242F933F93C1
:101110004F935F936F937F938F939F93AF93BF93FF
:10112000EF93FF938EE792E00E944A02FF91EF91C6
:10113000BF91AF919F918F917F916F915F914F91EF
:101140003F912F910F900FBE0F901F9018951F92F7
:101150000F920FB60F9211242F938F939F93EF93BB
:10116000FF93E0918E02F0918F028081E0919402D2
:10117000F091950282FD12C09081809197028F5F5D
:101180008F7320919802821751F0E0919702F0E05E
:10119000E258FD4F958F8093970201C08081FF91A7
:1011A000EF919F918F912F910F900FBE0F901F90F5
:1011B0001895CF92DF92EF92FF920F931F93CF93E8
:1011C000DF936C017A018B01C0E0D0E0CE15DF0522
:1011D00081F0D8016D918D01D601ED91FC910190C6
:1011E000F081E02DC6010995892B11F02196EECFF3
:1011F0007E01C701DF91CF911F910F91FF90EF907A
:10120000DF90CF900895CF92DF92EF92FF92BC01D2
:10121000603282E078070CF03FC077FD06C0653B86
:1012200071052CF064EB70E002C060E070E080912A
:101230004A0428E830E06901C81AD10887FDD39430
:10124000CC0CDD1CCC0CDD1C0D2C000CEE08FF08BA
:1012500080914B0428E532E0281B310987FD339546
:10126000220F331F220F331FC901330FAA0BBB0BF1
:101270009C01AD012C193D094E095F09DB010E945B
:10128000B21024EB30E040E050E00E948810C20E23
:10129000D31EE41EF51EB60189E494E0FF90EF90A2
:1012A000DF90CF900C94E404EF92FF920F931F9382
:1012B000CF93DF937B01FC016281738180819181F7
:1012C0000E94ED05EC01892BC1F00C811D810130DC
:1012D000110559F46E817F816115710531F08FE739
:1012E00091E00E945212892B41F001501109023005
:1012F000110518F46E817F8102C060E070E0F70193
:1013000080819181009719F06115710529F421E020
:101310008617970731F406C00E94521221E0892BEC
:1013200009F020E0822FDF91CF911F910F91FF9064
:10133000EF900895AF92BF92CF92DF92EF92FF921B
:101340000F931F93CF93DF9300D000D000D0CDB781
:10135000DEB77C016B015C0182E0A80EB11CC50107
:101360000E945706D7011296ED91FC911397808148
:101370008B3521F08B3709F488C092C0F701868144
:10138000882309F46DC08150868300811181B801E2
:1013900084E090E00E942F07009709F4A2C0FC01AE
:1013A00011830083138212828C016BE5C5010E94B8
:1013B0009906882309F454C06DE5C5010E94990679
:1013C000811146C01A821982BE016F5F7F4FC7012B
:1013D0000E949A09882309F443C0D8016D917C9139
:1013E00088E090E00E942F07DC01892B39F01196EC
:1013F0001C921E9213961C921E921297F801228143
:1014000033812115310551F0F901808191810097D7
:1014100011F09C01F9CFB183A08303C0F801B3831D
:10142000A2831097E9F086E0FE01319612960190B2
:101430000D928A95E1F76DE5C5010E94990681112B
:1014400007C06CE2C5010E9499068111BBCF08C09C
:10145000D70116968C9116978F5F16968C9303C0C2
:101460000E941D078C01F80180819181892B11F464
:1014700010E03AC086E090E0D60111969C938E93DE
:1014800013961C930E9312972AC0C7010E943E0721
:10149000FC0120813181232B59F327E030E017C074
:1014A00011E0873219F0823209F010E0C7010E9482
:1014B000AF060097E9F2112341F022E030E0F60197
:1014C00031832083938382830FC021E030E0D601F3
:1014D00011963C932E9313969C938E93129711E042
:1014E00003C00E941D0760CF812F26960FB6F89487
:1014F000DEBF0FBECDBFDF91CF911F910F91FF9047
:10150000EF90DF90CF90BF90AF90089530917D0223
:10151000313208F04BC0809159028111FCCF90917B
:101520007C0222E02093590221E0209358022FEF01
:10153000209357021092560230935502ECE5F2E0E8
:10154000A5E3B2E020E0321721F041914D932F5FE7
:10155000FACF1092340220913402990F922B90937B
:10156000340290913302913061F4109233029091E1
:1015700034029093BB009091BC0093FDF8CF95ECA2
:1015800001C095EE9093BC00909159029230E1F326
:10159000909157029F3F79F080915702803241F03D
:1015A00080915702803331F084E005C081E003C0B0
:1015B00082E001C083E010925B0210927D021092E3
:1015C0005A020895CF93DF93E3EBF0E08491EFE9C3
:1015D000F0E0D491EBE8F0E0C491CC2391F08111DC
:1015E0000E946C02EC2FF0E0EE0FFF1FE458FF4F5B
:1015F000A591B491EC91ED2381E090E021F480E09D
:1016000002C080E090E0DF91CF91089586E391E001
:101610009093510380935003809162038230E1F0F4
:101620008330B9F0EFEFEE0FFF0BE95DFC4F118255
:1016300010828091640390916503009711F00E94DD
:10164000C4118091660390916703009741F00C9458
:10165000C411E998E1E0E7CFE898E0E0E4CF08952D
:10166000CF93DF93CDB7DEB7C35DD1090FB6F89442
:10167000DEBF0FBECDBF789484B5826084BD84B5D3
:10168000816084BD85B5826085BD85B5816085BD7D
:1016900080916E00816080936E0010928100809135
:1016A00081008260809381008091810081608093BD
:1016B0008100809180008160809380008091B100E2
:1016C00084608093B1008091B00081608093B0000D
:1016D00080917A00846080937A0080917A008260A1
:1016E00080937A0080917A00816080937A00809163
:1016F0007A00806880937A001092C100E0918E0297
:10170000F0918F0282E08083E0918A02F0918B0257
:101710001082E0918C02F0918D0280E18083109222
:101720009602E0919202F091930286E08083E0912C
:101730009002F0919102808180618083E09190021B
:10174000F0919102808188608083E0919002F09115
:101750009102808180688083E0919002F0919102F3
:1017600080818F7D80838AE090E0A0E0B0E080936C
:10177000820290938302A0938402B093850281E059
:1017800080932B0210913D04809146048C3008F028
:1017900044C061E0812F0E94C40280914604E82F7A
:1017A000F0E09F01220F331FE20FF31FE55DFC4FB6
:1017B0001F739081907C192B108310924704109214
:1017C00048046CE00E941A1190E02CE0829FB00166
:1017D000112440E050E09B01240F351FF901EE0F6A
:1017E000FF1F2E0F3F1FF901E55DFC4F208126FDF5
:1017F00007C04F5F5F4F4C30510569F70E941A05D3
:10180000E0914604F0E0CF01880F991FE80FF91F1F
:10181000E55DFC4F80818064808360914404709119
:10182000450486E494E00E94E40460913E047091D3
:101830003F046D3D85E0780754F460914004709159
:1018400041046C3D95E0790714F06CED75E0709300
:1018500043046093420486E494E00E94E40480918F
:1018600049048C3008F043C061E089E00E94C40262
:1018700080914904E82FF0E09F01220F331FE20F0F
:10188000F31FE55DFC4F9081907C996090831092EE
:101890004A0410924B046CE00E941A1190E0ECE0B4
:1018A0008E9FB001112440E050E09B01240F351FB2
:1018B000F901EE0FFF1F2E0F3F1FF901E55DFC4FF1
:1018C000208126FD07C04F5F5F4F4C30510569F7FF
:1018D0000E941A05E0914904F0E0CF01880F991F9A
:1018E000E80FF91FE55DFC4F8081806480838AE505
:1018F00090E00E94030962E085E00E94C402109219
:101900000E0210920D0210925B0210927D02109254
:10191000590281E0809358021092330261E082E123
:101920000E94950261E083E10E9495028091B900D6
:101930008E7F8093B9008091B9008D7F8093B9002C
:1019400088E48093B80085E48093BC0087EF90E042
:1019500090930C0280930B0288EF90E090930A0220
:10196000809309021092BA008E0107531F4F23E59E
:10197000222E21E0322E412C512C32014A9490919A
:101980006303AFE0B2E0E0916603F0916703349740
:1019900080E040E050E0BA014D935D938F5F349654
:1019A0008A3039F09817A8F34081518162817381A0
:1019B000F3CFA0901102B0901202B0923002A09228
:1019C0002F02C0901302D0901402D0923202C09223
:1019D00031028091190290911A0290932E02809305
:1019E0002D02893EF3E09F0710F482E006C0895E75
:1019F00093408D3E924020F481E080932C0202C0FF
:101A000010922C020E94E20A019709F0DEC0809138
:101A10002C02823009F0D9C01092040181E0809339
:101A20002B0210920601109205018AE580930701AE
:101A30000E9400038090230290902402A09025022F
:101A4000B0902602DC01CB0188199909AA09BB09CB
:101A500081319742A105B10520F080912B028111BF
:101A6000E6C180910701853B10F490E002C084EB51
:101A700090E00E940309809105018130B9F008F4DB
:101A8000DEC1823039F52091060130E0A4EFB1E0EB
:101A90000E94DC10A30192010E948810DA01C901A2
:101AA00084529A4FAF4FBF4F7C0119C0A0910601DD
:101AB000B0E02CE03EEF4FEF5FEF0E94A710A301D4
:101AC00092010E948810DA01C90184529A4FAF4FE7
:101AD000BF4F7C01F6E4EF16F5E0FF0648F0C701C2
:101AE00021E4E21626E0F20628F080E496E002C047
:101AF00086E495E060913E0470913F048617970755
:101B000044F06091400470914104861797070CF4EB
:101B1000BC01709343046093420486E494E00E9405
:101B2000E4040E9400038090270290902802A09075
:101B30002902B0902A02DC01CB0188199909AA096F
:101B4000BB0984369105A105B105E0F1CC24C3940D
:101B5000C0925A0290E1D92ED0927C0210925B0280
:101B600010927D020E94860A811122C08091040198
:101B700090910501A0910601B091070180930001A9
:101B800090930101A0930201B0930301C0925A0205
:101B9000D0927C0210925B0210927D0244E050E0F1
:101BA00060E071E08BE193E00E9425010E94860ACB
:101BB0000E940003609327027093280280932902F9
:101BC00090932A020E94BB00DACE0E94E20A01979B
:101BD00009F06CC090902C0281E0981267C090923E
:101BE000040110922B02C501A0E0B0E09C01AD0100
:101BF000285E334041095109A4EBB0E00E94A710D0
:101C000028EE33E040E050E00E9488102093070166
:101C10008DEDC81685E0D806E8F090920501C60162
:101C2000A0E0B0E09C01AD012C5D354041095109B7
:101C3000AFEFB0E00E94A7106115E4EF7E07E1E08E
:101C40008E07910554F524EF31E040E050E00E940A
:101C5000881024C0FCEDCF16F5E0DF0611F182E01C
:101C600080930501C601A0E0B0E09C01AD01285EB3
:101C7000334041095109A1E0BFEF0E94B510643F14
:101C800021E072078105910544F424EF31E040E042
:101C900050E00E948810215001C02FEF20930601D0
:101CA000C7CE1092050110920601C2CE82E0809349
:101CB000040181E080932B028EE792E00E94AF0046
:101CC000181619060CF0B4CEFE0131966F01BE2E27
:101CD000AD2C0E940003609386027093870280936C
:101CE0008802909389028EE792E00E948D0097FF10
:101CF00092C00E9400032091860230918702409199
:101D0000880250918902DC01CB01821B930BA40B4A
:101D1000B50B209182023091830240918402509150
:101D2000850282179307A407B507E8F28DE693E0D2
:101D3000F80191838083B282A382B482A5828AE073
:101D40008683C8010E943E076C01FC01808191815D
:101D5000892B09F44FC0F801D182C08233822282DC
:101D600088E591E0C053DF4F99838883C05DD04000
:101D7000BE0160537F4FC8010E9454098823A1F01F
:101D80006EE571E0C6010E9412068093060167E6C7
:101D900071E0C6010E9412068093050161E771E0BF
:101DA000C6010E9412061AC0F801D182C082338295
:101DB00022828AE791E0CE52DF4F99838883C25D09
:101DC000D040BE016E527F4FC8010E945409882343
:101DD00039F010920601109205018AE580930701FF
:101DE0000E940003609323027093240280932502D3
:101DF000909326028EE792E00E94AF001816190613
:101E00002CF48EE792E00E948D00F4CF10927403C0
:101E1000109273030DCE8D30910509F487CFF60132
:101E200081936F01E017F10709F053CF7FCF109234
:101E30000601109205018AE58093070112CE8CED10
:101E4000E82E85E0F82E4BCECF93DF9310928102DF
:101E50001092800288EE93E0A0E0B0E080938202CE
:101E600090938302A0938402B093850222E131E033
:101E700030937F0220937E0225EC30E030938B027A
:101E800020938A0224EC30E030938D0220938C0260
:101E900020EC30E030938F0220938E0221EC30E072
:101EA000309391022093900222EC30E03093930221
:101EB0002093920226EC30E0309395022093940216
:101EC00010929702109298021092990210929A0220
:101ED00010921E0310921D0380931F039093200302
:101EE000A0932103B093220384E291E090931C031A
:101EF00080931B0380914F038C30A0F491E0980FE6
:101F000090934F038093490490E0FC01EE0FFF1F74
:101F10008E0F9F1FFC01E55DFC4F88EB9BE09283D9
:101F2000818303C08FEF8093490488EE93E0909300
:101F300043048093420480914F038C30A0F491E0DD
:101F4000980F90934F038093460490E0FC01EE0FAE
:101F5000FF1F8E0F9F1FFC01E55DFC4F88EB9BE090
:101F60009283818303C08FEF8093460486E0809341
:101F70003D0488EE93E090933F0480933E0480ED0F
:101F800097E0909341048093400484EF91E0909314
:101F900045048093440485E793E090937003809315
:101FA0006F0388EC90E0909372038093710310921A
:101FB0007403109273038CE391E090936E0380930B
:101FC0006D0386E391E0909351038093500388EE74
:101FD00093E0A0E0B0E08093520390935303A0936A
:101FE0005403B093550380ED97E0A0E0B0E08093F8
:101FF000560390935703A0935803B09359038AE074
:1020000090E0A0E0B0E080935A0390935B03A0932C
:102010005C03B0935D0384E398E0A0E0B0E08093BC
:102020005E0390935F03A0936003B09361031092EB
:1020300068031092690310926A0310926B03109266
:102040006C038AE08093630388E290E00E942C1185
:10205000EC01909365038093640388E290E00E9412
:102060002C11909367038093660320E030E0FE011B
:10207000E20FF31F1082118212821382FC01E20F21
:10208000F31F10821182128213822C5F3F4F28327D
:10209000310569F782E08093620360E00E94C40228
:1020A00080E593E090932803809327038091690053
:1020B000836080936900E89ADF91CF91089557FD7E
:1020C0009058440F551F59F05F3F71F04795880FA6
:1020D00097FB991F61F09F3F79F08795089512163D
:1020E00013061406551FF2CF4695F1DF08C01616E9
:1020F00017061806991FF1CF86957105610508949A
:102100000895E894BB2766277727CB0197F90895B0
:10211000052E97FB1EF400940E949F1057FD07D0D8
:102120000E94BA1007FC03D04EF40C949F105095F7
:102130004095309521953F4F4F4F5F4F08959095B3
:102140008095709561957F4F8F4F9F4F08950E94A6
:10215000DC10A59F900DB49F900DA49F800D911D44
:1021600011240895B7FF0C94A7100E94A710821B9A
:10217000930B0895A1E21A2EAA1BBB1BFD010DC0F3
:10218000AA1FBB1FEE1FFF1FA217B307E407F50727
:1021900020F0A21BB30BE40BF50B661F771F881F03
:1021A000991F1A9469F760957095809590959B0199
:1021B000AC01BD01CF010895A29FB001B39FC00142
:1021C000A39F700D811D1124911DB29F700D811D63
:1021D0001124911D08950E94671088F09F5798F070
:1021E000B92F9927B751B0F0E1F0660F771F881F1C
:1021F000991F1AF0BA95C9F714C0B13091F00E9436
:102200008110B1E008950C948110672F782F8827F2
:10221000B85F39F0B93FCCF3869577956795B3955C
:10222000D9F73EF490958095709561957F4F8F4FCB
:102230009F4F0895991B79E004C0991F961708F0E5
:10224000961B881F7A95C9F780950895EE0FFF1F9A
:102250000590F491E02D09940F931F93CF93DF9392
:102260008230910510F482E090E0E0914E04F0910C
:102270004F0420E030E0A0E0B0E0309719F1408159
:1022800051810281138148175907C8F084179507B7
:1022900069F4109731F012960C93129713961C93D1
:1022A00027C000934E0410934F0422C0211531051E
:1022B00019F04217530718F49A01BD01EF01DF012D
:1022C000F801DBCF21153105F9F0281B390B24303B
:1022D000310580F48A819B816115710521F0FB0134
:1022E0009383828304C090934F0480934E04FE0135
:1022F000329644C0FE01E20FF31F81939193225066
:102300003109398328833AC020914C0430914D041F
:10231000232B41F420910A0130910B0130934D049D
:1023200020934C04209108013091090121153105B9
:1023300041F42DB73EB740910C0150910D01241B83
:10234000350BE0914C04F0914D04E217F307A0F433
:102350002E1B3F0B2817390778F0AC014E5F5F4FFB
:102360002417350748F04E0F5F1F50934D044093DC
:102370004C048193919302C0E0E0F0E0CF01DF9143
:10238000CF911F910F910895CF93DF93009709F498
:1023900081C0FC01329713821282A0914E04B09149
:1023A0004F04109781F420813181820F931F209177
:1023B0004C0430914D042817390751F5F0934D0422
:1023C000E0934C0467C0ED0120E030E0CE17DF075A
:1023D00040F44A815B819E0141155105F1F0EA010B
:1023E000F5CFD383C28340815181840F951FC817D5
:1023F000D90759F488819981840F951F029691839A
:1024000080838A819B81938382832115310529F4FE
:10241000F0934F04E0934E043DC0E901FB83EA834F
:1024200049915991C40FD51FEC17FD0761F48081C4
:102430009181840F951F0296E90199838883828197
:1024400093819B838A83E0E0F0E012968D919C91CA
:102450001397009719F0FD01DC01F7CF8D919C9146
:1024600011979D012E5F3F4F820F931F20914C04C7
:1024700030914D042817390769F4309729F41092E8
:102480004F0410924E0402C013821282B0934D0486
:10249000A0934C04DF91CF91089581E090E0F894EF
:1024A0000C945B12FB01DC018D91019080190110ED
:1024B000D9F3990B089510E0C2E6D0E004C0FE0104
:1024C0000E9426112196C336D107C9F7F894FFCF91
:1024D0000000005A0000005A000050048000000074
:1024E00000001208D908F9075F08AF008D00A100AD
:1024F00000000000520125018201F9001D010901BF
:10250000FA00000000008501000000002202000027
:102510000000480222225C5C6208660C6E0A720DA2
:102520007409004D6F6465004472697665005468F3
:10253000726F74746C6500446972656374696F6E60
:10254000005374656572696E670053746F70006E36
:04255000756C6C003A
:107E0000112484B714BE81FFF0D085E080938100F7
:107E100082E08093C00088E18093C10086E0809377
:107E2000C20080E18093C4008EE0C9D0259A86E02C
:107E300020E33CEF91E0309385002093840096BBD3
:107E4000B09BFECF1D9AA8958150A9F7CC24DD24C4
:107E500088248394B5E0AB2EA1E19A2EF3E0BF2EE7
:107E6000A2D0813461F49FD0082FAFD0023811F036
:107E7000013811F484E001C083E08DD089C08234E0
:107E800011F484E103C0853419F485E0A6D080C0E4
:107E9000853579F488D0E82EFF2485D0082F10E0AE
:107EA000102F00270E291F29000F111F8ED06801E7
:107EB0006FC0863521F484E090D080E0DECF843638
:107EC00009F040C070D06FD0082F6DD080E0C81688
:107ED00080E7D80618F4F601B7BEE895C0E0D1E017
:107EE00062D089930C17E1F7F0E0CF16F0E7DF06D8
:107EF00018F0F601B7BEE89568D007B600FCFDCFD4
:107F0000A601A0E0B1E02C9130E011968C91119780
:107F100090E0982F8827822B932B1296FA010C0160
:107F200087BEE89511244E5F5F4FF1E0A038BF0790
:107F300051F7F601A7BEE89507B600FCFDCF97BE46
:107F4000E89526C08437B1F42ED02DD0F82E2BD052
:107F50003CD0F601EF2C8F010F5F1F4F84911BD097
:107F6000EA94F801C1F70894C11CD11CFA94CF0C13
:107F7000D11C0EC0853739F428D08EE10CD085E9AC
:107F80000AD08FE07ACF813511F488E018D01DD067
:107F900080E101D065CF982F8091C00085FFFCCF94
:107FA0009093C60008958091C00087FFFCCF809118
:107FB000C00084FD01C0A8958091C6000895E0E648
:107FC000F0E098E1908380830895EDDF803219F02E
:107FD00088E0F5DFFFCF84E1DECF1F93182FE3DFCA
:107FE0001150E9F7F2DF1F91089580E0E8DFEE27F6
:047FF000FF270994CA
:027FFE00040479
:0400000300007E007B
:00000001FF