:100000000C9463000C94B4040C9484040C948B0042
:100010000C948B000C948B000C948B000C948B0034
:100020000C948B000C948B000C948B000C94E405C6
:100030000C948B000C948B000C948B000C948B0014
:100040000C940C030C948B000C945F090C943909EC
:100050000C948B000C948B000C948B000C948B00F4
:100060000C9456030C948B00000000002400270021
:100070002A0000000000250028002B0000000000DE
:1000800023002600290004040404040404040202DA
:100090000202020203030303030301020408102007
:1000A0004080010204081020010204081020000012
:1000B0000008000201000003040700000000000027
:1000C0000000890F6D0B11241FBECFEFD8E0DEBFFB
:1000D000CDBF11E0A0E0B1E0E2E9F5E202C0059099
:1000E0000D92A238B107D9F724E0A2E8B1E001C02F
:1000F0001D92A237B207E1F710E0C2E6D0E004C0DB
:100100002197FE010E948711C136D107C9F70E94CD
:10011000970B0C94BC120C940000FC01918D828D05
:10012000981761F0828DDF01A80FB11D5D968C914B
:10013000928D9F5F9F73928F90E008958FEF9FEF56
:100140000895FC01918D828D981731F0828DE80F12
:10015000F11D858D90E008958FEF9FEF0895FC01CC
:10016000918D228D892F90E0805C9F4F821B910999
:100170008F739927089580E090E0892B29F00E94E1
:10018000C00881110C940000089585ED8093BC0097
:100190008091BC0084FDFCCF1092820208954091B2
:1001A0000002262F30E0240F311D21323105DCF40E
:1001B000209182022430C9F4FC0180E090E086178F
:1001C00058F4309100022191DC01A052BE4FA30FE0
:1001D000B11D2C930196F3CF80910002680F6093BC
:1001E000000280E0089581E0089582E00895089576
:1001F00008950895E091310280913002E81730F4BB
:10020000F0E0E054FE4F808190E008958FEF9FEF83
:1002100008959091310280913002981750F4E92F9F
:10022000F0E0E054FE4F208130E09F5F9093310278
:1002300002C02FEF3FEFC90108958091300290E096
:1002400020913102821B91090895CF92DF92EF92A3
:10025000FF920F931F93CF93DF937C01CB018A0111
:1002600020918302222389F0EB016B01C40ED51E7D
:10027000CC15DD0569F06991D701ED91FC910190F4
:10028000F081E02DC7010995F3CF642F0E94CF00C4
:10029000C801DF91CF911F910F91FF90EF90DF90F8
:1002A000CF900895CF93DF931F92CDB7DEB76983C8
:1002B000209183022223D1F02091A602203240F027
:1002C00021E030E0FC013383228380E090E015C020
:1002D00080918402E82FF0E0EB57FD4F99819083E5
:1002E0008F5F809384028093A60205C061E0CE01F7
:1002F00001960E94CF0081E090E00F90DF91CF91B6
:100300000895089580E090E00895CF92DF92EF92F3
:10031000FF920F931F93CF93DF93FC01418D528D7A
:10032000638D748D3FB7F8948091230290912402DD
:10033000A0912502B091260226B5A89B05C02F3FAB
:1003400019F00196A11DB11D3FBFBA2FA92F982FFB
:100350008827820F911DA11DB11DC2E0880F991F32
:10036000AA1FBB1FCA95D1F7818F928FA38FB48F1D
:10037000818D928DA38DB48D841B950BA60BB70B2D
:100380004685578560897189481759076A077B0731
:1003900010F4108E4EC0308D2389321708F046C0FD
:1003A000208DC489D58934E0239FC00DD11D11242F
:1003B00088839983AA83BB83428153816481758139
:1003C00002851385248535856A017B01C01AD10A0F
:1003D000E20AF30A8C159D05AE05BF0538F1C6800B
:1003E000D780E084F1840C0D1D1D2E1D3F1D0817C4
:1003F00019072A073B07D0F0208DC689D78934E03A
:10040000239FC00DD11D112484179507A607B70798
:1004100048F0AC01BD01C816D906EA06FB0610F487
:10042000B701A601488359836A837B83808D8F5FE0
:10043000808FDF91CF911F910F91FF90EF90DF9010
:10044000CF900895FC0126813781620F731F84814C
:1004500095818617970738F0828193817783668329
:10046000820F931F089580E090E00895809192019B
:1004700081110BC010928F0110928E011092910188
:100480001092900181E0809392018EE891E00895AE
:100490000E94AE12FC01848DDF01A80FB11DA35A8A
:1004A000BF4F2C91848D90E001968F739927848F94
:1004B000A689B7892C93A089B1898C9183708064B7
:1004C0008C93938D848D981306C00288F389E02D58
:1004D00080818F7D80830895833081F028F481307E
:1004E00099F08230A1F008958730A9F08830B9F0F2
:1004F0008430D1F4809180008F7D03C08091800092
:100500008F7780938000089584B58F7702C084B57B
:100510008F7D84BD08958091B0008F7703C0809156
:10052000B0008F7D8093B00008951F93CF93DF9329
:10053000282F30E0F901E255FF4F8491F901E6568A
:10054000FF4FD491F901EA57FF4FC491CC23C1F07A
:10055000162F81110E946C02EC2FF0E0EE0FFF1FAE
:10056000EE58FF4FA591B4919FB7F894111104C0B4
:100570008C91D095D82302C0EC91DE2BDC939FBFE9
:10058000DF91CF911F910895CF93DF9390E0FC010D
:10059000E656FF4F2491FC01EA57FF4F84918823D0
:1005A00061F190E0880F991FFC01E859FF4FC59158
:1005B000D491FC01EE58FF4FA591B491611109C08F
:1005C0009FB7F8948881209582238883EC912E230D
:1005D0000BC0623061F49FB7F8948881322F309558
:1005E00083238883EC912E2B2C939FBF06C08FB75B
:1005F000F894E8812E2B28838FBFDF91CF91089547
:100600002FB7F894609128027091290280912A02F4
:1006100090912B022FBF08951F920F920FB60F9249
:1006200011242F933F938F939F93AF93BF93809108
:10063000280290912902A0912A02B0912B023091B8
:10064000270223E0230F2D3720F40196A11DB11DB1
:1006500005C026E8230F0296A11DB11D2093270295
:100660008093280290932902A0932A02B0932B0230
:100670008091230290912402A0912502B09126023C
:100680000196A11DB11D8093230290932402A09393
:100690002502B0932602BF91AF919F918F913F9118
:1006A0002F910F900FBE0F901F9018951F920F92D1
:1006B0000FB60F9211242F933F934F935F936F9335
:1006C0007F938F939F93AF93BF93EF93FF9380910B
:1006D000B900887F803609F49CC068F5883209F437
:1006E0005BC090F4803109F454C038F4882309F4D5
:1006F000F6C0883009F44DC0F6C0883109F44CC00A
:10070000803209F45DC0EFC0803409F468C048F459
:10071000803309F455C0883309F0E5C08093800226
:10072000D8C0803509F44FC0883509F45DC08834DD
:1007300009F0D9C0D6C0883909F4C7C0A8F48837F1
:1007400009F467C038F4883609F463C0803709F4C7
:1007500060C0C9C0883809F4B8C0803909F45FC0E6
:10076000803809F0C0C05BC0803B09F486C038F413
:10077000803A09F466C0883A09F47FC0B4C0803C6E
:1007800009F4A7C0883C09F4A4C0883B09F48AC0D6
:10079000AAC080915D0210C090917F0280917E027C
:1007A000981770F5E0917F0281E08E0F80937F02B1
:1007B000F0E0E25AFD4F80818093BB0085EC86C05B
:1007C000809380028EC0E0917F0281E08E0F809343
:1007D0007F028091BB00F0E0E25AFD4F8083909150
:1007E0007F0280917E026EC0E0917F0281E08E0FD9
:1007F00080937F028091BB00F0E0E25AFD4F80833E
:100800008091810281116DC081E080935C0284EA55
:1008100061C083E08093820210922202CFCF809148
:100820002202803208F051C0E091220281E08E0F56
:10083000809322028091BB00F0E0EE5FFD4F808349
:10084000BDCF85EC8093BC00109282028091220281
:10085000803230F4E0912202F0E0EE5FFD4F108232
:100860006091220270E0E0912C02F0912D0282E072
:1008700092E009951092220236C084E080938202B1
:100880001092010210920002E0912E02F0912F02CC
:10089000099580910002811105C081E080930002DA
:1008A0001092E001E091010281E08E0F809301023D
:1008B000F0E0E052FE4F80818093BB0090910102F6
:1008C00080910002981708F479CF85E88093BC00E6
:1008D0000AC085EC8093BC001092820204C0109282
:1008E00080020E94C500FF91EF91BF91AF919F914F
:1008F0008F917F916F915F914F913F912F910F90C9
:100900000FBE0F901F9018951F920F920FB60F9267
:1009100011242F933F934F935F936F937F938F9304
:100920009F93AF93BF93EF93FF9380915203909166
:100930005303009741F0DC01ED91FC910190F081AF
:10094000E02D61E00995FF91EF91BF91AF919F91EB
:100950008F917F916F915F914F913F912F910F9068
:100960000FBE0F901F9018951F920F920FB60F9207
:1009700011242F933F934F935F936F937F938F93A4
:100980009F93AF93BF93EF93FF9380915003909108
:100990005103009741F0DC01ED91FC910190F08151
:1009A000E02D60E00995FF91EF91BF91AF919F918C
:1009B0008F917F916F915F914F913F912F910F9008
:1009C0000FBE0F901F901895FC0190819C3088F508
:1009D000818128E830E0281B310987FD3395220FFB
:1009E000331F220F331F6217730784F0828148E59B
:1009F00052E0481B510987FD5395440F551F440F82
:100A0000551F9B01461757070CF49A0122503109D4
:100A1000220F331F4FB7F894892F90E0FC01EE0F9F
:100A2000FF1F8E0F9F1FFC01E456FE4F3283218370
:100A30004FBF0895CF92DF92EF92FF92CF93DF9353
:100A4000EC01603282E078070CF03DC077FD06C013
:100A5000653B71052CF064EB70E002C060E070E073
:100A6000898128E830E06901C81AD10887FDD3944C
:100A7000CC0CDD1CCC0CDD1C0D2C000CEE08FF0892
:100A80008A8128E532E0281B310987FD3395220F42
:100A9000331F220F331FC901330FAA0BBB0B9C015D
:100AA000AD012C193D094E095F09DB010E941311AC
:100AB00024EB30E040E050E00E94E910C20ED31E6B
:100AC000E41EF51EB601CE01DF91CF91FF90EF90AD
:100AD000DF90CF900C94E4041F93CF93DF93EC014D
:100AE000162F88818C3008F04EC061E0812F0E9463
:100AF000C4028881E82FF0E09F01220F331FE20F2C
:100B0000F31FE456FE4F1F739081907C192B1083C6
:100B100019821A826CE00E947B119CE0899FB001CF
:100B2000112440E050E09B01240F351FF901EE0F26
:100B3000FF1F2E0F3F1FF901E456FE4F908196FDD7
:100B400016C04F5F5F4F4C30510569F781110FC0E0
:100B50001092800082E080938100109285001092B4
:100B60008400B19A80916F00826080936F00E88169
:100B7000F0E0CF01880F991FE80FF91FE456FE4FF0
:100B80008081806480838881DF91CF911F91089557
:100B9000FC0190919B019C30A0F481E0890F80932F
:100BA0009B019083892F90E0FC01EE0FFF1F8E0FB9
:100BB0009F1FFC01E456FE4F88EB9BE092838183EC
:100BC00008958FEF808308951F920F920FB60F92B2
:100BD00011242F933F934F935F936F937F938F9342
:100BE0009F93AF93BF93EF93FF9380919A0187FFF9
:100BF00005C010928500109284001BC020919A01BC
:100C0000022E000C330B80919B0190E028173907CE
:100C100084F480919A01082E000C990BFC01EE0FD0
:100C2000FF1F8E0F9F1FFC01E456FE4F808186FD43
:100C300015C080919A018F5F80939A0120919A014B
:100C4000022E000C330B80919B0190E0281739078E
:100C5000C4F480919A018C3064F113C080919A01A0
:100C6000082E000C990BFC01EE0FFF1F8E0F9F1F2B
:100C7000FC01E456FE4F808160E08F730E94950274
:100C8000D8CF8091840090918500049680349C494F
:100C900018F480E49CE905C080918400909185005F
:100CA000049690938900809388008FEF80939A0137
:100CB0003BC0209184003091850080919A01082EDC
:100CC000000C990BFC01EE0FFF1F8E0F9F1FFC0104
:100CD000E456FE4F81819281820F931F9093890089
:100CE0008093880080919A01082E000C990BFC01DA
:100CF000EE0FFF1F8E0F9F1FFC01E456FE4F8081F9
:100D000086FF12C080919A01082E000C990BFC01FD
:100D1000EE0FFF1F8E0F9F1FFC01E456FE4F8081D8
:100D200061E08F730E949502FF91EF91BF91AF91A7
:100D30009F918F917F916F915F914F913F912F91F3
:100D40000F900FBE0F901F9018950F931F93CF9386
:100D5000DF938B01FC01C281D3812097A9F06A81C6
:100D60007B810115110519F06115710521F46017DA
:100D7000710731F409C0C8010E94B312892B21F018
:100D80000990D881C02DE9CFCE01DF91CF911F917D
:100D90000F9108950E94A506FC01892BD9F1848149
:100DA00095818330910518F40197A0F109C0853031
:100DB000910520F0059739F5668123C066812DC025
:100DC0000680F781E02D309729F18081843721F169
:100DD0008B3229F08D3221F4319691E002C03196A8
:100DE00090E060E0219180ED820F8A3040F4660F40
:100DF000862F880F880F680F6053620FF3CF9923F7
:100E000061F061950AC066817781808591850E9435
:100E10004C1103C060E001C061E0862F0895FC0121
:100E2000A081B1818C918D3051F024F489508230B1
:100E3000B8F505C0803219F08F3219F00895119677
:100E40002CC011968C9111978A3219F08F32D1F003
:100E500008951196B183A083A081B181CD0101963F
:100E60009183808311968C9111978823C9F08A32DF
:100E700099F712968C9112978F3271F713960DC0D5
:100E80008A3071F2A081B181CD0101969183808376
:100E900011968C918111F4CF03C0B183A083C0CF90
:100EA00008951F93CF93DF93EC01162F0E940F0735
:100EB000E881F9818081181305C03196F983E883B0
:100EC00081E001C080E0DF91CF911F9108950F93E1
:100ED0001F93CF93DF93EC010C811D8102960E943A
:100EE0000F07EA81FB818081873231F1823221F163
:100EF00090ED980F9A3070F091EA980F9C3150F075
:100F00009FEB980F9A3130F08B3221F093ED980FD0
:100F10009230F0F52A813B812F5F3F4F3B832A833C
:100F2000EC81FD819F012F5F3F4F3D832C838083A8
:100F3000EA81FB818081DCCF3196FB83EA83EA8101
:100F4000FB819081992321F19F012F5F3F4F3B83CC
:100F50002A839817E9F09C3591F49181A5E4B1E0DA
:100F60002C91222339F0921303C011969C9102C058
:100F70001296F6CF992361F03296FB83EA83EC81D7
:100F8000FD819F012F5F3F4F3D832C839083D7CFFF
:100F9000EC81FD81CF0101969D838C831082C80175
:100FA000DF91CF911F910F9108958091860181115A
:100FB0000BC0109283011092820110928501109251
:100FC000840181E08093860182E891E00895DB014D
:100FD000109749F0ED91FC9111970190F081E02D6F
:100FE000BC01CD01099480E090E00895AF92BF92DA
:100FF000CF92DF92EF92FF920F931F93CF93DF93E5
:1010000000D000D000D0CDB7DEB77C01DC01169651
:101010008C91882309F48EC08150F701868300816A
:101020001181B80184E090E00E94E707009709F47D
:1010300084C0DC0111961C930E9313961C921E9291
:1010400012978C016701B2E0CB0ED11C6BE7C60191
:101050000E945107882309F46DC06DE7C6010E9404
:101060005107811161C0C7010E9467075C01892B8C
:1010700009F460C06AE3C6010E945107882309F49D
:1010800059C01A821982BE016F5F7F4FC7010E944B
:10109000010A882309F44EC0B501C8010E94A506C3
:1010A000009761F5F801608171818AE090E00E940B
:1010B000E707009741F0DC0111961C921E921596ED
:1010C0001C921E921497D8011296ED91FC911397E1
:1010D000309751F0208131812115310511F0F9014E
:1010E000F9CF9183808303C0F801938382830097B3
:1010F00009F1DC011396BC92AE92129726E0FE0134
:101100003196DC01149601900D922A95E1F76DE776
:10111000C6010E945107811107C06CE2C6010E94FE
:1011200051078111A0CF06C0F70186818F5F8683AA
:10113000C80106C00E94360203C00E94360281CF59
:1011400026960FB6F894DEBF0FBECDBFDF91CF91CC
:101150001F910F91FF90EF90DF90CF90BF90AF90D5
:101160000895FC01538D448D252F30E0842F90E0AD
:10117000821B930B541710F0CF9608950197089592
:1011800087EA92E00E94AF0021E0892B09F420E079
:10119000822F0895EF92FF920F931F93CF93DF93C7
:1011A000EC0181E0888F9B8D8C8D981305C0E889B8
:1011B000F989808185FD26C0F62E0B8D10E00F5F2A
:1011C0001F4F0F731127E02E8C8DE8120CC00FB645
:1011D00007FCFACFE889F989808185FFF5CFCE0138
:1011E0000E944A02F1CF8B8DFE01E80FF11DE35AF8
:1011F000FF4FF0829FB7F8940B8FEA89FB898081BB
:1012000080620AC09FB7F894EE89FF896083E889FD
:10121000F98980818370806480839FBF81E090E042
:10122000DF91CF911F910F91FF90EF900895CF9391
:10123000DF93EC01888D8823C9F0EA89FB898081DE
:1012400085FD05C0A889B9898C9186FD0FC00FB6B0
:1012500007FCF5CF808185FFF2CFA889B9898C91F1
:1012600085FFEDCFCE010E944A02E7CFDF91CF91FB
:1012700008951F920F920FB60F9211242F933F9350
:101280004F935F936F937F938F939F93AF93BF938E
:10129000EF93FF9387EA92E00E944A02FF91EF9159
:1012A000BF91AF919F918F917F916F915F914F917E
:1012B0003F912F910F900FBE0F901F9018951F9286
:1012C0000F920FB60F9211242F938F939F93EF934A
:1012D000FF93E091B702F091B8028081E091BD02E6
:1012E000F091BE0282FD12C090818091C0028F5F9A
:1012F0008F732091C102821751F0E091C002F0E09B
:10130000E955FD4F958F8093C00201C08081FF9108
:10131000EF919F918F912F910F900FBE0F901F9083
:101320001895CF92DF92EF92FF920F931F93CF9376
:10133000DF936C017A018B01C0E0D0E0CE15DF05B0
:1013400081F0D8016D918D01D601ED91FC91019054
:10135000F081E02DC6010995892B11F02196EECF81
:101360007E01C701DF91CF911F910F91FF90EF9008
:10137000DF90CF900895EF92FF920F931F93CF933A
:10138000DF937B01FC0162817381808191810E94E6
:10139000A506EC01892BC1F00C811D8101301105DE
:1013A00059F46E817F816115710531F08CE791E010
:1013B0000E94B312892B41F001501109023011052E
:1013C00018F46E817F8102C060E070E0F7018081D7
:1013D0009181009719F06115710529F421E08617B4
:1013E000970731F406C00E94B31221E0892B09F05F
:1013F00020E0822FDF91CF911F910F91FF90EF900E
:101400000895AF92BF92CF92DF92EF92FF920F9327
:101410001F93CF93DF9300D000D000D0CDB7DEB7BD
:101420007C016B015C0182E0A80EB11CC5010E9429
:101430000F07D7011296ED91FC91139780818B35A0
:1014400021F08B3709F488C092C0F7018681882388
:1014500009F46DC08150868300811181B80184E058
:1014600090E00E94E707009709F4A2C0FC011183F5
:101470000083138212828C016BE5C5010E94510723
:10148000882309F454C06DE5C5010E9451078111FC
:1014900046C01A821982BE016F5F7F4FC7010E944A
:1014A000010A882309F443C0D8016D917C9188E03A
:1014B00090E00E94E707DC01892B39F011961C921D
:1014C0001E9213961C921E921297F801228133816C
:1014D0002115310551F0F90180819181009711F0BA
:1014E0009C01F9CFB183A08303C0F801B383A28329
:1014F0001097E9F086E0FE013196129601900D9268
:101500008A95E1F76DE5C5010E945107811107C079
:101510006CE2C5010E9451078111BBCF08C0D70101
:1015200016968C9116978F5F16968C9303C00E9427
:10153000D5078C01F80180819181892B11F410E08D
:101540003AC086E090E0D60111969C938E93139654
:101550001C930E9312972AC0C7010E94F607FC0144
:1015600020813181232B59F327E030E017C011E0AF
:10157000873219F0823209F010E0C7010E94670734
:101580000097E9F2112341F022E030E0F6013183C7
:101590002083938382830FC021E030E0D60111962F
:1015A0003C932E9313969C938E93129711E003C055
:1015B0000E94D50760CF812F26960FB6F894DEBF24
:1015C0000FBECDBFDF91CF911F910F91FF90EF9094
:1015D000DF90CF90BF90AF9008953091A602313246
:1015E00008F04BC0809182028111FCCF9091A5023E
:1015F00022E02093820221E0209381022FEF2093AA
:10160000800210927F0230937E02E5E8F2E0AEE5C0
:10161000B2E020E0321721F041914D932F5FFACFD5
:1016200010925D0220915D02990F922B90935D02C2
:1016300090915C02913061F410925C0290915D0295
:101640009093BB009091BC0093FDF8CF95EC01C046
:1016500095EE9093BC00909182029230E1F39091CC
:1016600080029F3F79F080918002803241F080912A
:101670008002803331F084E005C081E003C082E065
:1016800001C083E0109284021092A602109283029D
:101690000895CF93DF93E3EBF0E08491EFE9F0E07E
:1016A000D491EBE8F0E0C491CC2391F081110E9439
:1016B0006C02EC2FF0E0EE0FFF1FE458FF4FA591F6
:1016C000B491EC91ED2381E090E021F480E002C040
:1016D00080E090E0DF91CF91089583E391E09093D3
:1016E0005B0380935A0380916C038230E1F0833076
:1016F000B9F0EFEFEE0FFF0BE05BFC4F11821082B1
:1017000080916E0390916F03009711F00E94251253
:101710008091700390917103009741F00C94251211
:10172000E998E1E0E7CFE898E0E0E4CF0895CF93CF
:10173000DF93CDB7DEB7C55DD1090FB6F894DEBF34
:101740000FBECDBF789484B5826084BD84B58160BE
:1017500084BD85B5826085BD85B5816085BD80917C
:101760006E00816080936E001092810080918100F4
:1017700082608093810080918100816080938100EC
:10178000809180008160809380008091B1008460AE
:101790008093B1008091B00081608093B00080910F
:1017A0007A00846080937A0080917A0082608093CE
:1017B0007A0080917A00816080937A0080917A002B
:1017C000806880937A001092C100E091B702F09196
:1017D000B80282E08083E091B302F091B4021082FB
:1017E000E091B502F091B60280E180831092BF02D1
:1017F000E091BB02F091BC0286E08083E091B902E7
:10180000F091BA02808180618083E091B902F09109
:10181000BA02808188608083E091B902F091BA02B7
:10182000808180688083E091B902F091BA02808162
:101830008F7D80838AE090E0A0E0B0E08093AB02EF
:101840009093AC02A093AD02B093AE0281E080937E
:10185000500260915F0470E088E694E00E946C059D
:10186000609166047091670488E694E00E94E40445
:1018700060916004709161046D3D25E0720754F43D
:1018800060916204709163046C3D35E0730714F05D
:101890006CED75E0709365046093640488E694E0F1
:1018A0000E94E40469E070E08BE694E00E946C051D
:1018B0006AE570E08BE694E00E941A0562E085E03C
:1018C0000E94C4026AE070E087E593E00E946C0524
:1018D0006BE070E084E593E00E946C056AE570E0DF
:1018E00087E593E00E941A056AE570E084E593E0DD
:1018F0000E941A0510923102109230021092840256
:101900001092A6021092820281E0809381021092CE
:101910005C0261E082E10E94950261E083E10E9445
:1019200095028091B9008E7F8093B9008091B900B3
:101930008D7F8093B90088E48093B80085E480931C
:10194000BC0087EF90E090932F0280932E0288EFE7
:1019500090E090932D0280932C021092BA0038EE02
:10196000832E33E0932EA12CB12C7E0149ECE40EA2
:10197000F11C212C312C21012A9430916D0382E33A
:1019800092E02BE7C22E23E0D22EE0917003F0917B
:101990007103349720E040E050E0BA01DC014D9340
:1019A0005D93CD01D6014D935D936D012F5F34960C
:1019B0002A3039F0321778F3408151816281738186
:1019C000EDCFE0913A02F0913B02CC52DF4FF98328
:1019D000E883C45DD040F0935502E0935402C09078
:1019E0003602D0903702D0925702C0925602209110
:1019F0004202309143023093590220935802609082
:101A000038027090390270925B0260925A028091A3
:101A10003C0290913D029093530280935202893E82
:101A2000F3E09F0710F482E006C0895E93408D3E8C
:101A3000924020F481E08093510202C01092510242
:101A400080913E0290913F02893E934020F481E0D4
:101A50008093000102C010920001C901A0E0B0E033
:101A60009C01AD01285E334041095109A4EBB0E06F
:101A70000E940811A50194010E94E910B90187E5AF
:101A800093E00E941A05C301A0E0B0E09C01AD0103
:101A9000285E334041095109A4EBB0E00E940811CF
:101AA000A50194010E94E910B90184E593E00E9428
:101AB0001A050E94490B019709F0D8C08091510284
:101AC000823009F0D3C01092010181E0809350026E
:101AD00010920301109202018AE5809304010E9492
:101AE0000003209148023091490240914A025091EE
:101AF0004B02DC01CB01821B930BA40BB50B813194
:101B00009742A105B10520F0809150028111F9C1E1
:101B100060910401653B10F470E002C064EB70E07A
:101B20008BE694E00E941A0580910201813071F0E9
:101B300050F08230F9F42091030130E0A4EFB1E0DD
:101B40000E943D110CC00CED15E014C0A0910301E2
:101B5000B0E02CE03EEF4FEF5FEF0E940811A201D2
:101B600091010E94E910DA01C90184529A4FAF4FE6
:101B7000BF4F8C0180910001882369F0063445E055
:101B8000140738F0013486E0180728F000E416E066
:101B900002C006E415E060916004709161040617CC
:101BA000170744F0609162047091630406171707E9
:101BB0000CF4B801709365046093640488E694E0C3
:101BC0000E94E4040E94000320914C0230914D02D7
:101BD00040914E0250914F02DC01CB01821B930BCE
:101BE000A40BB50B84369105A105B105E0F1CC2419
:101BF000C394C092830280E1D82ED092A5021092A5
:101C000084021092A6020E94ED0A811122C08091E6
:101C1000010190910201A0910301B0910401809310
:101C2000770390937803A0937903B0937A03C092DB
:101C30008302D092A502109284021092A60248E17B
:101C400050E067E773E084E493E00E9425010E947E
:101C5000ED0A0E94000360934C0270934D02809342
:101C60004E0290934F020E94BB0087CE0E94490B08
:101C7000019709F070C070905102B1E07B126BC007
:101C80007092010110925002CC52DF4FE881F9812D
:101C9000C45DD040CF01A0E0B0E09C01AD01285E62
:101CA000334041095109A4EBB0E00E940811A5019D
:101CB00094010E94E91020930401FDEDCF16F5E098
:101CC000DF06E8F070920201C601A0E0B0E09C01DE
:101CD000AD012C5D354041095109AFEFB0E00E94E4
:101CE00008116115E4EF7E07E1E08E07910554F5D8
:101CF00024EF31E040E050E00E94E91024C0FCED08
:101D0000CF16F5E0DF0611F182E080930201C601F3
:101D1000A0E0B0E09C01AD01285E334041095109CB
:101D2000A1E0BFEF0E941611643F21E07207810518
:101D3000910544F424EF31E040E050E00E94E910C6
:101D4000215001C02FEF20930301C9CE1092020150
:101D500010920301C4CE82E08093010181E0809360
:101D6000500287EA92E00E94AF00181619060CF0A4
:101D7000B6CE9E012F5F3F4F6901722E6D2C0E94DF
:101D800000036093AF027093B0028093B10290930E
:101D9000B20287EA92E00E948D0097FFA6C00E94DF
:101DA00000032091AF023091B0024091B1025091F6
:101DB000B202DC01CB01821B930BA40BB50B20916B
:101DC000AB023091AC024091AD025091AE0282174D
:101DD0009307A407B507E8F2EFE8F3E0D7011196FF
:101DE000FC93EE9312967C92129713966C92139733
:101DF00014967C92149715966C9215978AE0169615
:101E00008C93C7010E94F6076C01DC018D919C91B7
:101E1000892B09F459C0D7011196DC92CE92E0E5E6
:101E2000F1E01396FC93EE93129725E531E0C05351
:101E3000DF4F39832883C05DD040BE0160537F4FA0
:101E4000C7010E94BB098823A1F06BE571E0C601C0
:101E50000E94CA068093030164E671E0C6010E94F5
:101E6000CA06809302016EE671E0C6010E94CA06AE
:101E70001FC0D7011196DC92CE92E0E5F1E01396F7
:101E8000FC93EE93129727E731E0CE52DF4F398370
:101E90002883C25DD040BE016E527F4FC7010E94B1
:101EA000BB09882339F010920301109202018AE5E0
:101EB000809304010E9400036093480270934902DA
:101EC00080934A0290934B0287EA92E00E94AF000F
:101ED000181619062CF487EA92E00E948D00F4CFC0
:101EE0001092960310929503FACD8D30910509F466
:101EF00073CFF60181936F01EE15FF0509F03FCF17
:101F00006BCF10920301109202018AE580930401C5
:101F1000FFCDAF92BF92CF92DF92EF92FF920F93DD
:101F20001F93CF93DF931092AA021092A90288EE1A
:101F3000C82E83E0D82EE12CF12CC092AB02D092B7
:101F4000AC02E092AD02F092AE028FE091E090938D
:101F5000A8028093A70285EC90E09093B40280934E
:101F6000B30284EC90E09093B6028093B50280ECCB
:101F700090E09093B8028093B70281EC90E0909348
:101F8000BA028093B90282EC90E09093BC028093F5
:101F9000BB0286EC90E09093BE028093BD0210924B
:101FA000C0021092C1021092C2021092C30210929B
:101FB000470310924603C0924803D0924903E0922F
:101FC0004A03F0924B0381E291E0909345038093A2
:101FD00044038BE694E00E94C805C8EED3E0D0939A
:101FE0006104C093600490EDA92E97E0B92EB092E1
:101FF0006304A0926204D0936504C093640404EF68
:1020000011E0109367040093660488E694E00E9450
:10201000C80586E080935F04D0936104C093600498
:10202000B0926304A0926204109367040093660464
:1020300087E993E0909392038093910388EC90E07A
:1020400090939403809393031092960310929503B8
:1020500089E391E09093900380938F03109277032C
:1020600010927803109279038AE580937A0383E3D0
:1020700091E090935B0380935A03C0925C03D092EB
:102080005D03E0925E03F0925F0380ED97E0A0E0D5
:10209000B0E08093600390936103A0936203B093D8
:1020A00063038AE090E0A0E0B0E080936403909343
:1020B0006503A0936603B093670384E398E0A0E010
:1020C000B0E08093680390936903A0936A03B09390
:1020D0006B031092720310927303109274031092A8
:1020E0007503109276038AE080936D0388E290E096
:1020F0000E948D11EC0190936F0380936E0388E230
:1021000090E00E948D11909371038093700320E002
:1021100030E0FE01E20FF31F10821182128213825F
:10212000FC01E20FF31F10821182128213822C5FD6
:102130003F4F2832310569F782E080936C0360E0FD
:102140000E94C4028AE593E0909351038093500368
:1021500080916900836080936900E89A87E593E045
:102160000E94C80584E593E0DF91CF911F910F9104
:10217000FF90EF90DF90CF90BF90AF900C94C80588
:1021800057FD9058440F551F59F05F3F71F0479528
:10219000880F97FB991F61F09F3F79F0879508950D
:1021A000121613061406551FF2CF4695F1DF08C02C
:1021B000161617061806991FF1CF86957105610549
:1021C00008940895E894BB2766277727CB0197F9F1
:1021D0000895052E97FB1EF400940E94001157FDF0
:1021E00007D00E941B1107FC03D04EF40C94001181
:1021F00050954095309521953F4F4F4F5F4F089533
:1022000090958095709561957F4F8F4F9F4F089562
:102210000E943D11A59F900DB49F900DA49F800D2D
:10222000911D11240895B7FF0C9408110E94081104
:10223000821B930B0895A1E21A2EAA1BBB1BFD0162
:102240000DC0AA1FBB1FEE1FFF1FA217B307E40795
:10225000F50720F0A21BB30BE40BF50B661F771FED
:10226000881F991F1A9469F76095709580959095CD
:102270009B01AC01BD01CF010895A29FB001B39FA6
:10228000C001A39F700D811D1124911DB29F700D7F
:10229000811D1124911D08950E94C81088F09F5738
:1022A00098F0B92F9927B751B0F0E1F0660F771F7A
:1022B000881F991F1AF0BA95C9F714C0B13091F070
:1022C0000E94E210B1E008950C94E210672F782F7D
:1022D0008827B85F39F0B93FCCF386957795679535
:1022E000B395D9F73EF490958095709561957F4FA1
:1022F0008F4F9F4F0895991B79E004C0991F96173F
:1023000008F0961B881F7A95C9F780950895EE0FFF
:10231000FF1F0590F491E02D09940F931F93CF9325
:10232000DF938230910510F482E090E0E091700438
:10233000F091710420E030E0A0E0B0E0309719F1B6
:10234000408151810281138148175907C8F08417D1
:10235000950769F4109731F012960C931297139623
:102360001C9327C0009370041093710422C02115A0
:10237000310519F04217530718F49A01BD01EF0116
:10238000DF01F801DBCF21153105F9F0281B390BEE
:102390002430310580F48A819B816115710521F01B
:1023A000FB019383828304C0909371048093700433
:1023B000FE01329644C0FE01E20FF31F8193919318
:1023C00022503109398328833AC020916E0430911C
:1023D0006F04232B41F420910701309108013093C1
:1023E0006F0420936E0420910501309106012115A0
:1023F000310541F42DB73EB74091090150910A01D2
:10240000241B350BE0916E04F0916F04E217F30783
:10241000A0F42E1B3F0B2817390778F0AC014E5F54
:102420005F4F2417350748F04E0F5F1F50936F041E
:1024300040936E048193919302C0E0E0F0E0CF01FD
:10244000DF91CF911F910F910895CF93DF93009764
:1024500009F481C0FC01329713821282A0917004AA
:10246000B0917104109781F420813181820F931F04
:1024700020916E0430916F042817390751F5F093BD
:102480006F04E0936E0467C0ED0120E030E0CE17EA
:10249000DF0740F44A815B819E0141155105F1F04F
:1024A000EA01F5CFD383C28340815181840F951F08
:1024B000C817D90759F488819981840F951F02960E
:1024C000918380838A819B81938382832115310547
:1024D00029F4F0937104E09370043DC0E901FB839B
:1024E000EA8349915991C40FD51FEC17FD0761F498
:1024F00080819181840F951F0296E90199838883D9
:10250000828193819B838A83E0E0F0E012968D9133
:102510009C911397009719F0FD01DC01F7CF8D9185
:102520009C9111979D012E5F3F4F820F931F209129
:102530006E0430916F042817390769F4309729F435
:10254000109271041092700402C013821282B09330
:102550006F04A0936E04DF91CF91089581E090E025
:10256000F8940C94BC12FB01DC018D910190801950
:102570000110D9F3990B089510E0C2E6D0E004C031
:10258000FE010E9487112196C336D107C9F7F8943E
:02259000FFCF7B
:10259200010000005A00007204800000000000CA1E
:1025A200089109B1081709AF008D00A100000000D1
:1025B20000520125018201F9001D010901FA000002
:1025C2000000008501000000002202000000004817
:1025D2000222225C5C6208660C6E0A720D740900AB
:1025E2004D6F6465004472697665005468726F7459
:1025F200746C6500446972656374696F6E0053742C
:10260200656572696E670053746F70006E756C6CED
:022612000000C6
:00000001FF
