:100000000C946D000C9495000C9495000C94950044
:100010000C9495000C9495000C9495000C9495000C
:100020000C9495000C9495000C9495000C949500FC
:100030000C9495000C9495000C9495000C949500EC
:100040000C945A050C9495000C9495000C94950012
:100050000C9495000C9495000C9495000C949500CC
:100060000C94A4050C94950005A84CCDB2D44EB9BF
:100070003836A9020C50B9918688083CA6AAAA2A4B
:10008000BE000000803F00000000240027002A007E
:100090000000000800020100000304070000000047
:1000A0000000000001020408102040800102040842
:1000B0001020010204081020000000002500280084
:1000C0002B000404040404040404020202020202D9
:1000D000030303030303D206240911241FBECFEF39
:1000E000D8E0DEBFCDBF22E0ACE1B1E001C01D929F
:1000F000AA30B207E1F711E0A0E0B1E0ECE9FAE1E3
:1001000002C005900D92AC31B107D9F710E0CCE6F2
:10011000D0E004C02197FE010E94150CCB36D10718
:10012000C9F70E944E070C94410D0C940000E09119
:10013000DB01F091DC018E179F07F0F53091E001B3
:10014000332361F0639FB0011124672F349FA00116
:100150001124452F329F90011124232F3091E60165
:100160005091E301E091E101F091E201351308C003
:10017000DC01AA0FBB1F8A0F9B1F8E0F9F1F0AC097
:10018000880F991F880F991F8E0F9F1FFC01E30F87
:10019000F11D10823091E301FC01E30FF11D60833A
:1001A0003091E401FC01E30FF11D40833091E50142
:1001B000FC01E30FF11D20830895CF92DF92EF92AF
:1001C000FF920F931F93CF93DF936C017A018B0102
:1001D000C0E0D0E0CE15DF0581F0D8016D918D0132
:1001E000D601ED91FC910190F081E02DC6010995B9
:1001F000892B11F02196EECF7E01C701DF91CF91BF
:100200001F910F91FF90EF90DF90CF900895089588
:10021000CF93DF93AC01E091C501F091C601309717
:10022000F1F09091C4018091C3019817C0F090E063
:10023000292F30E02617370754F4D901A65DBE4FA9
:10024000EA01C20FD31F28812C939F5FF1CF109238
:10025000C4016093C301CB01DF91CF910994DF9179
:10026000CF91089590E0FC01E057FF4F2491FC01ED
:10027000EC55FF4F3491FC01EE53FF4FE491EE2318
:1002800009F43CC0222339F1233091F038F42130B5
:10029000A9F0223001F584B58F7D12C0273091F08E
:1002A0002830A1F02430B9F4809180008F7D03C004
:1002B000809180008F77809380000DC084B58F7708
:1002C00084BD09C08091B0008F7703C08091B000D9
:1002D0008F7D8093B000F0E0EE0FFF1FE854FF4FDA
:1002E000A591B4919FB7F894611104C08C91309599
:1002F000382302C0EC913E2B3C939FBF0895CF93CF
:10030000DF9390E0FC01EC55FF4F2491FC01EE538C
:10031000FF4F8491882361F190E0880F991FFC01C1
:10032000EA57FF4FC591D491FC01E854FF4FA591C6
:10033000B491611109C09FB7F894888120958223F8
:100340008883EC912E230BC0623061F49FB7F89440
:100350008881322F309583238883EC912E2B2C9328
:100360009FBF06C08FB7F894E8812E2B28838FBFDC
:10037000DF91CF9108953FB7F8948091B6019091A5
:10038000B701A091B801B091B90126B5A89B05C0ED
:100390002F3F19F00196A11DB11D3FBFBA2FA92F04
:1003A000982F8827820F911DA11DB11DBC01CD0181
:1003B00042E0660F771F881F991F4A95D1F708956D
:1003C0000F931F93CF93DF93CDB7DEB729970FB667
:1003D000F894DEBF0FBECDBF0E94BB010091E701C4
:1003E0001091E8012091E9013091EA01DC01CB0193
:1003F000801B910BA20BB30B8C329140A105B10570
:1004000058F3F8948091DD019091DE019A838983FD
:10041000E091E101F091E201DF011196808189878D
:100420009091D901E091EB01F091EC018091ED0107
:10043000992309F42EC09081982B988790818095FC
:1004400089238F838F818C8388E08B8358856F818C
:1004500049853B812C8189819A81508347FD252FD5
:100460003A952083262F39F0441F00C00000608396
:10047000000000C0F2CF38E04D916083000001978A
:1004800061F7F093EC01E093EB0149873B832C8308
:1004900038C09081982B98879081809589238F838D
:1004A0008F818E8388E08D8358856F8149853D815A
:1004B0002E8189819A81508347FD252F00C000C07D
:1004C000208300C000C000C000C000C060830000E6
:1004D000262F3A9541F0441F000000C000C000C024
:1004E00000C000C0E8CF38E04D9100C0608300C07C
:1004F000019709F7F093EC01E093EB0149873D8305
:100500002E839A83898378940E94BB016093E701CC
:100510007093E8018093E9019093EA0129960FB660
:10052000F894DEBF0FBECDBFDF91CF911F910F9129
:1005300008952FB7F8946091B2017091B301809142
:10054000B4019091B5012FBF089585ED8093BC0053
:100550008091BC0084FDFCCF1092C00108954091B1
:100560006A01262F30E0240F311D21323105DCF4E1
:100570002091C0012430C9F4FC0180E090E086178E
:1005800058F430916A012191DC01A65BBE4FA30FA4
:10059000B11D2C930196F3CF80916A01680F60938F
:1005A0006A0180E0089581E0089582E00895089549
:1005B000E091C4018091C301E81730F4F0E0E65DFA
:1005C000FE4F808190E008958FEF9FEF0895909106
:1005D000C4018091C301981750F4E92FF0E0E65D63
:1005E000FE4F208130E09F5F9093C40102C02FEF47
:1005F0003FEFC90108958091C30190E02091C401AB
:10060000821B91090895CF93DF93CB01EA01642FF8
:100610000E94AF02CE01DF91CF910895CF93DF9377
:100620001F92CDB7DEB7698361E0CE0101960E94CB
:10063000AF0281E090E00F90DF91CF91089508958F
:1006400080E090E008950F931F938091CC01882360
:1006500029F084E690E0A0E0B0E004C08AEF90E0EA
:10066000A0E0B0E08093260190932701A093280199
:10067000B09329010E949902009122011091230157
:100680002091240130912501DC01CB01801B910BCD
:10069000A20BB30B00912601109127012091280194
:1006A0003091290180179107A207B30780F090913C
:1006B000210181E08927809321010E9499026093A2
:1006C000220170932301809324019093250190913E
:1006D0000201809101019E3130F4813031F094317A
:1006E00010F4823011F0811126C020E040E06AEF62
:1006F00082E090E00E94970020E040E06AEF83E013
:1007000090E00E94970020E040E06AEF87E190E0EF
:100710000E94970020E040E06AEF88E190E00E94AC
:10072000970020E040E06AEF89E190E00E949700A6
:1007300020E040E02AC0953108F47FC0823039F5CE
:100740002AEF4AEF6AEF82E090E00E9497002AEFDA
:100750004AEF6AEF83E090E00E9497002AEF4AEFA9
:100760006AEF87E190E00E9497002AEF4AEF6AEF74
:1007700088E190E00E9497002AEF4AEF6AEF89E152
:1007800090E00E9497002AEF4AEF6AEF7CC09E310A
:1007900008F453C0813009F050C0809121018823B2
:1007A00039F120E040E06FEF82E090E00E94970096
:1007B0002FEF40E060E083E090E00E9497002FEF91
:1007C00040E060E087E190E00E94970020E040E098
:1007D0006FEF88E190E00E9497002FEF40E060E02B
:1007E00089E190E00E94970020E040E06FEF4BC06D
:1007F0002FEF40E060E082E090E00E94970020E070
:1008000040E06FEF83E090E00E94970020E040E03E
:100810006FEF87E190E00E9497002FEF40E060E0EB
:1008200088E190E00E94970020E040E06FEF89E1CE
:1008300090E00E9497002FEF24C020E040E060E0AD
:1008400082E090E00E94970020E040E060E083E0DA
:1008500090E00E94970020E040E060E087E190E0B7
:100860000E94970020E040E060E088E190E00E9474
:10087000970020E040E060E089E190E00E9497006E
:1008800020E040E060E08AE190E01F910F910C943D
:1008900097000F931F930E94990200911D011091E0
:1008A0001E0120911F0130912001DC01CB01801B32
:1008B000910BA20BB30B8A3F9105A105B10580F006
:1008C00090911C0181E0892780931C010E9499026C
:1008D00060931D0170931E0180931F01909320016E
:1008E00080910001811116C080911C01882391F034
:1008F00020E042E36AEF80E090E00E94970020E071
:1009000042E36AEF81E090E00E94970020E042E33A
:100910006AEF32C0809103018035B8F480911C01E8
:10092000882309F43FC020E042E36AEF80E090E0D2
:100930000E94970020E042E36AEF81E090E00E948D
:10094000970020E042E36AEF3EC0853658F180917F
:100950001C01882339F120E040E060E080E090E075
:100960000E94970020E040E060E081E090E00E947B
:10097000970020E040E060E08BE190E00E9497006B
:1009800020E042E36AEF84E090E00E94970020E0DC
:1009900042E36AEF85E090E00E94970020E042E3A6
:1009A0006AEF26C020E040E060E080E090E00E9436
:1009B000970020E040E060E081E090E00E94970036
:1009C00020E040E060E08BE190E00E94970020E0B2
:1009D00040E060E084E090E00E94970020E040E08A
:1009E00060E085E090E00E94970020E040E060E059
:1009F00086E190E01F910F910C9497000F931F9345
:100A0000CF93DF938091C30190E02091C401821BBA
:100A1000910903970CF447C0CEEED1E00E949902F1
:100A20006093D5017093D6018093D7019093D8013C
:100A30008DEC91E00E94E70297FF2EC00E94990280
:100A40000091D5011091D6012091D7013091D801A4
:100A5000DC01CB01801B910BA20BB30B0091D101E8
:100A60001091D2012091D3013091D40180179107C8
:100A7000A207B307E8F28091EE019091EF01A091F7
:100A8000F001B091F1018093000190930101A093D6
:100A90000201B093030107C0899382E0C630D807F2
:100AA00009F0BCCFE8CFDF91CF911F910F9108954E
:100AB0000E943C0D1F920F920FB60F9211242F939C
:100AC0003F938F939F93AF93BF938091B201909187
:100AD000B301A091B401B091B5013091B10123E00F
:100AE000230F2D3720F40196A11DB11D05C026E866
:100AF000230F0296A11DB11D2093B1018093B20175
:100B00009093B301A093B401B093B5018091B60165
:100B10009091B701A091B801B091B9010196A11DC2
:100B2000B11D8093B6019093B701A093B801B09323
:100B3000B901BF91AF919F918F913F912F910F90EC
:100B40000FBE0F901F9018951F920F920FB60F9225
:100B500011242F933F934F935F936F937F938F93C2
:100B60009F93AF93BF93EF93FF938091B900887FDA
:100B7000803609F49CC068F5883209F45BC090F4B3
:100B8000803109F454C038F4882309F4F6C0883061
:100B900009F44DC0F6C0883109F44CC0803209F424
:100BA0005DC0EFC0803409F468C048F4803309F4B4
:100BB00055C0883309F0E5C080938D01D8C08035D9
:100BC00009F44FC0883509F45DC0883409F0D9C0F4
:100BD000D6C0883909F4C7C0A8F4883709F467C0BB
:100BE00038F4883609F463C0803709F460C0C9C09E
:100BF000883809F4B8C0803909F45FC0803809F03A
:100C0000C0C05BC0803B09F486C038F4803A09F468
:100C100066C0883A09F47FC0B4C0803C09F4A7C01C
:100C2000883C09F4A4C0883B09F48AC0AAC080911A
:100C3000B00110C09091AF018091AE01981770F58E
:100C4000E091AF0181E08E0F8093AF01F0E0E257B9
:100C5000FE4F80818093BB0085EC86C080938D0120
:100C60008EC0E091AF0181E08E0F8093AF01809143
:100C7000BB00F0E0E257FE4F80839091AF0180917E
:100C8000AE016EC0E091AF0181E08E0F8093AF01A5
:100C90008091BB00F0E0E257FE4F80838091BF015E
:100CA00081116DC081E08093BE0184EA61C083E060
:100CB0008093C00110928C01CFCF80918C01803243
:100CC00008F051C0E0918C0181E08E0F80938C017F
:100CD0008091BB00F0E0E459FE4F8083BDCF85ECEE
:100CE0008093BC001092C00180918C01803230F45E
:100CF000E0918C01F0E0E459FE4F108260918C018C
:100D000070E0E091BA01F091BB018CE691E00995A9
:100D100010928C0136C084E08093C00110926B0168
:100D200010926A01E091BC01F091BD01099580919A
:100D30006A01811105C081E080936A0110924A0125
:100D4000E0916B0181E08E0F80936B01F0E0E65B38
:100D5000FE4F80818093BB0090916B0180916A016E
:100D6000981708F479CF85E88093BC000AC085EC19
:100D70008093BC001092C00104C010928D010E94AB
:100D8000A502FF91EF91BF91AF919F918F917F91BC
:100D90006F915F914F913F912F910F900FBE0F90E8
:100DA0001F9018951092D0011092CF0188EE93E019
:100DB000A0E0B0E08093D1019093D201A093D30141
:100DC000B093D4018EE091E09093CE018093CD0159
:100DD0001092EE011092EF011092F0018AE58093DB
:100DE000F1011092DA011092E0011092E7011092E5
:100DF000E8011092E9011092EA0181E08093E60196
:100E00008093E3011092E40192E09093E5018093D6
:100E1000D90184E590E09093DE018093DD010E948A
:100E20001B0C9093E2018093E101009761F024E5AF
:100E3000FC0111922A95E9F78CE190E09093DC0196
:100E40008093DB0108C01092DE011092DD01109248
:100E5000DC011092DB018BE08093DF018091DA01ED
:100E6000882341F061E08BE00E947F0160E08BE02D
:100E70000E943201EDECF0E0E491F0E0EE0FFF1F94
:100E8000E854FF4F859194919093EC018093EB018E
:100E9000EFEAF0E0E491E093ED010895789484B5F1
:100EA000826084BD84B5816084BD85B5826085BD66
:100EB00085B5816085BD80916E00816080936E00F4
:100EC00010928100809181008260809381008091E6
:100ED0008100816080938100809180008160809397
:100EE00080008091B10084608093B1008091B00057
:100EF00081608093B00080917A00846080937A0052
:100F000080917A00826080937A0080917A0081607B
:100F100080937A0080917A00806880937A001092A2
:100F2000C1008091DF0187FD08C061E00E947F0160
:100F300060E08091DF010E94320181E08093DA015C
:100F40002091E001222339F1C091E101D091E20129
:100F5000215051F030E040E050E06FEF7FEF80E053
:100F600090E00E94D40B02C020E030E0FE014091EE
:100F7000DD015091DE01CF018C1B9D0B841795077D
:100F800040F44081429FC001439F900D11249193F2
:100F9000EECF1092E001C0E0D0E020E040E06AEF48
:100FA000CE010E9497002196CC31D105B1F78091F6
:100FB000E1019091E201892B11F00E94E001109271
:100FC000C4011092C3011092C2011092C10110928B
:100FD000C00181E08093BF011092BE0161E082E117
:100FE0000E94320161E083E10E9432018091B900E8
:100FF0008E7F8093B9008091B9008D7F8093B90076
:1010000088E48093B80085E48093BC0087E091E099
:101010009093BD018093BC0188E091E09093BB0167
:101020008093BA0180E28093BA008EEF94E09093AF
:10103000C6018093C501DD24D39400E010E0CC24E8
:10104000C3948091FE019091FF018C3D954018F072
:10105000C092CC0102C01092CC018091000181307D
:10106000A9F018F0823091F016C00E94490420E0E7
:1010700040E06FEF82E090E00E94970020E040E0C7
:101080006FEF83E090E00E94970011C00E94490436
:101090000E9423030CC0C0E0D0E020E040E060E00C
:1010A000CE010E9497002196CC31D105B1F70E9464
:1010B00099020E9434094B015C0125E535ED47E9B1
:1010C00053E40E949C0A0E94440B20E030E040E878
:1010D0005FE30E94300A20E030E048EC52E40E94D6
:1010E00071090E940E0BF62E2BEA3AEA41E353E413
:1010F000C501B4010E949C0A0E94440B20E030E02C
:1011000040E85FE30E94300A20E030E048EC52E41F
:101110000E9471090E940E0BE62E20E030E049E7A4
:1011200053E4C501B4010E949C0A0E94440B20E0D4
:1011300030E040E85FE30E94300A20E030E048EC15
:1011400052E40E9471090E940E0BB62E8091CC01D0
:10115000882309F465C080910001882309F460C0E8
:101160000E9499028090C8019090C901A090CA0184
:10117000B090CB01DC01CB0188199909AA09BB0900
:1011800084369105A105B10578F08091C7018D25C0
:101190008093C7010E9499026093C8017093C901AE
:1011A0008093CA019093CB018091C701C6E0D0E043
:1011B0008823F9F020E040E06FEFCE010E94970015
:1011C0002196CE30D105B1F7CEE0D0E02FEF40E050
:1011D00060E0CE010E9497002196C631D105B1F79B
:1011E0008091E1019091E201892B39F10E94E001A7
:1011F00024C02FEF40E060E0CE010E9497002196CE
:10120000CE30D105B1F7CEE0D0E020E040E06FEF86
:10121000CE010E9497002196C631D105B1F7E0CFEB
:10122000C6E0D0E02B2D4E2D6F2DCE010E949700F1
:101230002196C631D105B1F7D3CF0115110509F4B7
:1012400000CF0E940000FDCE8091E1019091E2016B
:10125000009711F00E94B30C8091DF0187FD03C05D
:1012600060E00C947F010895E89409C097FB3EF478
:1012700090958095709561957F4F8F4F9F4F9923E3
:10128000A9F0F92F96E9BB279395F6958795779561
:101290006795B795F111F8CFFAF4BB0F11F460FF21
:1012A0001BC06F5F7F4F8F4F9F4F16C0882311F079
:1012B00096E911C0772321F09EE8872F762F05C08D
:1012C000662371F096E8862F70E060E02AF09A9528
:1012D000660F771F881FDAF7880F9695879597F91D
:1012E00008950E9484090C94F5090E94E70938F0DA
:1012F0000E94EE0920F0952311F00C94DE090C9465
:10130000E40911240C94290A0E94060A70F3959F9F
:10131000C1F3950F50E0551F629FF001729FBB27EC
:10132000F00DB11D639FAA27F00DB11DAA1F649F88
:101330006627B00DA11D661F829F2227B00DA11D3B
:10134000621F739FB00DA11D621F839FA00D611DC1
:10135000221F749F3327A00D611D231F849F600DE2
:10136000211D822F762F6A2F11249F5750409AF00B
:10137000F1F088234AF0EE0FFF1FBB1F661F771F97
:10138000881F91505040A9F79E3F510580F00C9462
:10139000DE090C94290A5F3FE4F3983ED4F3869566
:1013A00077956795B795F795E7959F5FC1F7FE2B02
:1013B000880F911D9695879597F9089597F99F67DE
:1013C00080E870E060E008959FEF80EC08950024CD
:1013D0000A941616170618060906089500240A949A
:1013E00012161306140605060895092E0394000C20
:1013F00011F4882352F0BB0F40F4BF2B11F460FFAF
:1014000004C06F5F7F4F8F4F9F4F089557FD9058D7
:10141000440F551F59F05F3F71F04795880F97FBB8
:10142000991F61F09F3F79F0879508951216130672
:101430001406551FF2CF4695F1DF08C016161706A1
:101440001806991FF1CF86957105610508940895D6
:10145000E894BB2766277727CB0197F90895505862
:10146000BB27AA270E94470A0C94F5090E94E709A6
:1014700038F00E94EE0920F039F49F3F19F426F469
:101480000C94E4090EF4E095E7FB0C94DE09E92FD7
:101490000E94060A58F3BA17620773078407950774
:1014A00020F079F4A6F50C94280A0EF4E0950B2EA2
:1014B000BA2FA02D0B01B90190010C01CA01A001A6
:1014C0001124FF27591B99F0593F50F4503E68F101
:1014D0001A16F040A22F232F342F4427585FF3CF42
:1014E000469537952795A795F0405395C9F77EF413
:1014F0001F16BA0B620B730B840BBAF09150A1F05C
:10150000FF0FBB1F661F771F881FC2F70EC0BA0FE1
:10151000621F731F841F48F4879577956795B79569
:10152000F7959E3F08F0B0CF9395880F08F0992764
:10153000EE0F9795879508950E94B00A0C94F509CF
:101540000E94EE0958F00E94E70940F029F45F3F3D
:1015500029F00C94DE0951110C94290A0C94E40929
:101560000E94060A68F39923B1F3552391F3951B62
:10157000550BBB27AA2762177307840738F09F5FB4
:101580005F4F220F331F441FAA1FA9F335D00E2E21
:101590003AF0E0E832D091505040E695001CCAF78E
:1015A0002BD0FE2F29D0660F771F881FBB1F261751
:1015B00037074807AB07B0E809F0BB0B802DBF0128
:1015C000FF2793585F4F3AF09E3F510578F00C94F7
:1015D000DE090C94290A5F3FE4F3983ED4F3869524
:1015E00077956795B795F7959F5FC9F7880F911D18
:1015F0009695879597F90895E1E0660F771F881F04
:10160000BB1F621773078407BA0720F0621B730BB6
:10161000840BBA0BEE1F88F7E09508950E94150B16
:101620006894B1110C94290A08950E940E0A88F05A
:101630009F5798F0B92F9927B751B0F0E1F0660F96
:10164000771F881F991F1AF0BA95C9F714C0B130D7
:1016500091F00E94280AB1E008950C94280A672F9F
:10166000782F8827B85F39F0B93FCCF38695779506
:101670006795B395D9F73EF49095809570956195EF
:101680007F4F8F4F9F4F08959F930E944E0B0F9057
:1016900007FCEE5F0C94770B0C94E4090E940E0A91
:1016A000D8F3E894E0E0BB279F57F0F02AED3FE045
:1016B00049EC06C0EE0FBB0F661F771F881F28F08E
:1016C000B23A62077307840728F0B25A620B730BB1
:1016D000840BE3959A9572F7803830F49A95BB0F96
:1016E000661F771F881FD2F790480C948D0BEF93DD
:1016F000E0FF07C0A2EA2AED3FE049EC5FEB0E9461
:10170000470A0E94F5090F90039401FC9058E8E6FF
:10171000F0E00C94990B9F3F31F0915020F48795A5
:1017200077956795B795880F911D9695879597F949
:1017300008959F938F937F936F93FF93EF939B01F4
:10174000AC010E947109EF91FF910E94AD0B2F91A6
:101750003F914F915F910C947109DF93CF931F9349
:101760000F93FF92EF92DF927B018C01689406C089
:10177000DA2EEF010E948409FE01E894A5912591DB
:10178000359145915591A6F3EF010E94470AFE015C
:101790009701A801DA9469F7DF90EF90FF900F911D
:1017A0001F91CF91DF910895052E97FB1EF40094B1
:1017B0000E94EB0B57FD07D00E94F30B07FC03D0F0
:1017C0004EF40C94EB0B50954095309521953F4F7E
:1017D0004F4F5F4F089590958095709561957F4F1D
:1017E0008F4F9F4F0895A1E21A2EAA1BBB1BFD012C
:1017F0000DC0AA1FBB1FEE1FFF1FA217B307E407F0
:10180000F50720F0A21BB30BE40BF50B661F771F47
:10181000881F991F1A9469F7609570958095909527
:101820009B01AC01BD01CF010895EE0FFF1F059094
:10183000F491E02D09940F931F93CF93DF9382309F
:10184000910510F482E090E0E0910802F091090225
:1018500020E030E0A0E0B0E0309719F14081518104
:101860000281138148175907C8F08417950769F456
:10187000109731F012960C93129713961C9327C071
:10188000009308021093090222C02115310519F0B6
:101890004217530718F49A01BD01EF01DF01F80167
:1018A000DBCF21153105F9F0281B390B2430310528
:1018B00080F48A819B816115710521F0FB0193837E
:1018C000828304C09093090280930802FE0132963D
:1018D00044C0FE01E20FF31F81939193225031091E
:1018E000398328833AC02091060230910702232BC6
:1018F00041F42091060130910701309307022093B3
:10190000060220910401309105012115310541F4B1
:101910002DB73EB74091080150910901241B350BAA
:10192000E0910602F0910702E217F307A0F42E1BE4
:101930003F0B2817390778F0AC014E5F5F4F241733
:10194000350748F04E0F5F1F509307024093060281
:101950008193919302C0E0E0F0E0CF01DF91CF915D
:101960001F910F910895CF93DF93009709F481C0E1
:10197000FC01329713821282A0910802B0910902F1
:10198000109781F420813181820F931F20910602EC
:10199000309107022817390751F5F0930702E093B9
:1019A000060267C0ED0120E030E0CE17DF0740F40B
:1019B0004A815B819E0141155105F1F0EA01F5CFA5
:1019C000D383C28340815181840F951FC817D907E3
:1019D00059F488819981840F951F029691838083A1
:1019E0008A819B81938382832115310529F4F093A9
:1019F0000902E09308023DC0E901FB83EA834991B3
:101A00005991C40FD51FEC17FD0761F480819181B6
:101A1000840F951F0296E9019983888382819381BF
:101A20009B838A83E0E0F0E012968D919C9113975E
:101A3000009719F0FD01DC01F7CF8D919C91119772
:101A40009D012E5F3F4F820F931F20910602309120
:101A500007022817390769F4309729F41092090210
:101A60001092080202C013821282B0930702A09360
:101A70000602DF91CF91089581E090E0F8940C94F4
:101A8000410D10E0CCE6D0E004C0FE010E94150C30
:0C1A90002196CD36D107C9F7F894FFCF9E
:101A9C000000005A00000A028000000000000E0343
:0C1AAC0003032003D702FB02E702D8026C
:107E0000112484B714BE81FFF0D085E080938100F7
:107E100082E08093C00088E18093C10086E0809377
:107E2000C20080E18093C4008EE0C9D0259A86E02C
:107E300020E33CEF91E0309385002093840096BBD3
:107E4000B09BFECF1D9AA8958150A9F7CC24DD24C4
:107E500088248394B5E0AB2EA1E19A2EF3E0BF2EE7
:107E6000A2D0813461F49FD0082FAFD0023811F036
:107E7000013811F484E001C083E08DD089C08234E0
:107E800011F484E103C0853419F485E0A6D080C0E4
:107E9000853579F488D0E82EFF2485D0082F10E0AE
:107EA000102F00270E291F29000F111F8ED06801E7
:107EB0006FC0863521F484E090D080E0DECF843638
:107EC00009F040C070D06FD0082F6DD080E0C81688
:107ED00080E7D80618F4F601B7BEE895C0E0D1E017
:107EE00062D089930C17E1F7F0E0CF16F0E7DF06D8
:107EF00018F0F601B7BEE89568D007B600FCFDCFD4
:107F0000A601A0E0B1E02C9130E011968C91119780
:107F100090E0982F8827822B932B1296FA010C0160
:107F200087BEE89511244E5F5F4FF1E0A038BF0790
:107F300051F7F601A7BEE89507B600FCFDCF97BE46
:107F4000E89526C08437B1F42ED02DD0F82E2BD052
:107F50003CD0F601EF2C8F010F5F1F4F84911BD097
:107F6000EA94F801C1F70894C11CD11CFA94CF0C13
:107F7000D11C0EC0853739F428D08EE10CD085E9AC
:107F80000AD08FE07ACF813511F488E018D01DD067
:107F900080E101D065CF982F8091C00085FFFCCF94
:107FA0009093C60008958091C00087FFFCCF809118
:107FB000C00084FD01C0A8958091C6000895E0E648
:107FC000F0E098E1908380830895EDDF803219F02E
:107FD00088E0F5DFFFCF84E1DECF1F93182FE3DFCA
:107FE0001150E9F7F2DF1F91089580E0E8DFEE27F6
:047FF000FF270994CA
:027FFE00040479
:0400000300007E007B
:00000001FF