:100000000C945E000C9486000C9486000C94860080
:100010000C9486000C9486000C9486000C94860048
:100020000C9486000C9486000C9486000C94860038
:100030000C9486000C9486000C9486000C94860028
:100040000C9474040C9486000C9486000C94860026
:100050000C9486000C9486000C9486000C94860008
:100060000C94BE040C9486000000000024002700BD
:100070002A0000000008000201000003040700003D
:10008000000000000000010204081020408001026E
:1000900004081020010204081020000000002500C0
:1000A00028002B00040404040404040402020202D5
:1000B0000202030303030303EC05630711241FBEBD
:1000C000CFEFD8E0DEBFCDBF21E0A0E2B1E001C0BC
:1000D0001D92AC3EB207E1F711E0A0E0B1E0E0E82C
:1000E000F1E102C005900D92A032B107D9F710E0FE
:1000F000CDE5D0E004C02197FE010E948707CC35F2
:10010000D107C9F70E945F060C94B3080C94000055
:10011000E091D501F091D6018E179F07F0F530914F
:10012000DA01332361F0639FB0011124672F349FFC
:10013000A0011124452F329F90011124232F3091CB
:10014000E0015091DD01E091DB01F091DC0135131C
:1001500008C0DC01AA0FBB1F8A0F9B1F8E0F9F1FB9
:100160000AC0880F991F880F991F8E0F9F1FFC01CF
:10017000E30FF11D10823091DD01FC01E30FF11D51
:1001800060833091DE01FC01E30FF11D408330916B
:10019000DF01FC01E30FF11D20830895CF92DF9270
:1001A000EF92FF920F931F93CF93DF936C017A012D
:1001B0008B01C0E0D0E0CE15DF0581F0D8016D9154
:1001C0008D01D601ED91FC910190F081E02DC601E9
:1001D0000995892B11F02196EECF7E01C701DF91A1
:1001E000CF911F910F91FF90EF90DF90CF900895E6
:1001F0000895CF93DF93AC01E091C501F091C60162
:100200003097F1F09091C4018091C3019817C0F02C
:1002100090E0292F30E02617370754F4D901A65D66
:10022000BE4FEA01C20FD31F28812C939F5FF1CFED
:100230001092C4016093C301CB01DF91CF91099467
:10024000DF91CF91089590E0FC01EE58FF4F24918B
:10025000FC01EA57FF4F3491FC01EC55FF4FE4914C
:10026000EE2309F43CC0222339F1233091F038F415
:100270002130A9F0223001F584B58F7D12C02730DE
:1002800091F02830A1F02430B9F4809180008F7D66
:1002900003C0809180008F77809380000DC084B56B
:1002A0008F7784BD09C08091B0008F7703C08091A3
:1002B000B0008F7D8093B000F0E0EE0FFF1FE65698
:1002C000FF4FA591B4919FB7F894611104C08C9130
:1002D0003095382302C0EC913E2B3C939FBF08958C
:1002E000CF93DF9390E0FC01EA57FF4F2491FC018C
:1002F000EC55FF4F8491882361F190E0880F991F9E
:10030000FC01E859FF4FC591D491FC01E656FF4F1F
:10031000A591B491611109C09FB7F8948881209587
:1003200082238883EC912E230BC0623061F49FB747
:10033000F8948881322F309583238883EC912E2B7B
:100340002C939FBF06C08FB7F894E8812E2B28838B
:100350008FBFDF91CF9108953FB7F8948091B60198
:100360009091B701A091B801B091B90126B5A89BB1
:1003700005C02F3F19F00196A11DB11D3FBFBA2F37
:10038000A92F982F8827820F911DA11DB11DBC0197
:10039000CD0142E0660F771F881F991F4A95D1F75C
:1003A00008950F931F93CF93DF93CDB7DEB72997AF
:1003B0000FB6F894DEBF0FBECDBF0E94AC01009116
:1003C000E1011091E2012091E3013091E401DC01AF
:1003D000CB01801B910BA20BB30B8C329140A1057A
:1003E000B10558F3F8948091D7019091D8019A8380
:1003F0008983E091DB01F091DC01DF0111968081BE
:1004000089879091D301E091E501F091E601809117
:10041000E701992309F42EC09081982B9887908149
:10042000809589238F838F818C8388E08B83588587
:100430006F8149853B812C8189819A81508347FD59
:10044000252F3A952083262F39F0441F00C0000045
:100450006083000000C0F2CF38E04D91608300005F
:10046000019761F7F093E601E093E50149873B834B
:100470002C8338C09081982B988790818095892310
:100480008F838F818E8388E08D8358856F81498526
:100490003D812E8189819A81508347FD252F00C09F
:1004A00000C0208300C000C000C000C000C0608346
:1004B0000000262F3A9541F0441F000000C000C004
:1004C00000C000C000C0E8CF38E04D9100C060839C
:1004D00000C0019709F7F093E601E093E501498731
:1004E0003D832E839A83898378940E94AC01609324
:1004F000E1017093E2018093E3019093E401299676
:100500000FB6F894DEBF0FBECDBFDF91CF911F9124
:100510000F9108952FB7F8946091B2017091B301D3
:100520008091B4019091B5012FBF089585ED80931E
:10053000BC008091BC0084FDFCCF1092C0010895E6
:1005400040916A01262F30E0240F311D2132310500
:10055000DCF42091C0012430C9F4FC0180E090E07B
:10056000861758F430916A012191DC01A65BBE4FD9
:10057000A30FB11D2C930196F3CF80916A01680FF0
:1005800060936A0180E0089581E0089582E0089513
:100590000895E091C4018091C301E81730F4F0E0C0
:1005A000E65DFE4F808190E008958FEF9FEF089504
:1005B0009091C4018091C301981750F4E92FF0E0A5
:1005C000E65DFE4F208130E09F5F9093C40102C042
:1005D0002FEF3FEFC90108958091C30190E0209172
:1005E000C401821B91090895CF93DF93CB01EA01E7
:1005F000642F0E94A002CE01DF91CF910895CF9386
:10060000DF931F92CDB7DEB7698361E0CE0101961B
:100610000E94A00281E090E00F90DF91CF910895B9
:10062000089580E090E008950F931F930E948A023E
:100630000091260110912701209128013091290174
:10064000DC01CB01801B910BA20BB30B8A3F910500
:10065000A105B10580F09091250181E08927809363
:1006600025010E948A0260932601709327018093DE
:1006700028019093290190910601809105019E31F6
:1006800030F4813031F0943110F4823011F0811166
:100690000AC020E040E06AEF82E090E00E9488001B
:1006A00020E040E00DC0953148F1823059F42AEF46
:1006B0004AEF6AEF82E090E00E9488002AEF4AEF5A
:1006C0006AEF26C09E31D0F08130C1F480912501BF
:1006D000882349F020E040E06FEF82E090E00E9444
:1006E00088002FEF13C02FEF40E060E082E090E041
:1006F0000E94880020E040E06FEF0AC020E040E068
:1007000060E082E090E00E94880020E040E060E04D
:1007100083E090E01F910F910C9488000F931F933A
:100720000E948A020091210110912201209123014F
:1007300030912401DC01CB01801B910BA20BB30B88
:100740008A3F9105A105B10580F09091200181E0DB
:100750008927809320010E948A026093210170936F
:10076000220180932301909324018091040181113F
:100770000FC080912001882359F020E042E36AEF06
:1007800080E090E00E94880020E042E36AEF23C00E
:1007900080910701803578F480912001882351F100
:1007A00020E042E36AEF80E090E00E94880020E0D1
:1007B00042E36AEF29C08536E8F080912001882362
:1007C000C9F020E040E060E080E090E00E94880016
:1007D00020E040E060E081E090E00E94880020E0BE
:1007E00042E36AEF84E090E00E94880020E042E368
:1007F0006AEF18C020E040E060E080E090E00E94F6
:10080000880020E040E060E081E090E00E94880005
:1008100020E040E060E084E090E00E94880020E07A
:1008200040E060E085E090E01F910F910C9488001B
:100830000F931F93CF93DF938091C30190E020919A
:10084000C401821B910903970CF447C0C0E0D1E0BA
:100850000E948A026093CF017093D0018093D101EE
:100860009093D20187EC91E00E94D80297FF2EC0AE
:100870000E948A020091CF011091D0012091D101F4
:100880003091D201DC01CB01801B910BA20BB30B89
:100890000091CB011091CC012091CD013091CE017E
:1008A00080179107A207B307E8F2809100019091A9
:1008B0000101A0910201B091030180930401909382
:1008C0000501A0930601B093070107C0899381E059
:1008D000C430D80709F0BCCFE8CFDF91CF911F918A
:1008E0000F9108950E94AE081F920F920FB60F92BB
:1008F00011242F933F938F939F93AF93BF93809136
:10090000B2019091B301A091B401B091B5013091C1
:10091000B10123E0230F2D3720F40196A11DB11D55
:1009200005C026E8230F0296A11DB11D2093B10139
:100930008093B2019093B301A093B401B093B50139
:100940008091B6019091B701A091B801B091B90121
:100950000196A11DB11D8093B6019093B701A0939C
:10096000B801B093B901BF91AF919F918F913F9121
:100970002F910F900FBE0F901F9018951F920F92FE
:100980000FB60F9211242F933F934F935F936F9362
:100990007F938F939F93AF93BF93EF93FF93809138
:1009A000B900887F803609F49CC068F5883209F464
:1009B0005BC090F4803109F454C038F4882309F402
:1009C000F6C0883009F44DC0F6C0883109F44CC037
:1009D000803209F45DC0EFC0803409F468C048F487
:1009E000803309F455C0883309F0E5C080938D0148
:1009F000D8C0803509F44FC0883509F45DC088340B
:100A000009F0D9C0D6C0883909F4C7C0A8F488371E
:100A100009F467C038F4883609F463C0803709F4F4
:100A200060C0C9C0883809F4B8C0803909F45FC013
:100A3000803809F0C0C05BC0803B09F486C038F440
:100A4000803A09F466C0883A09F47FC0B4C0803C9B
:100A500009F4A7C0883C09F4A4C0883B09F48AC003
:100A6000AAC08091B00110C09091AF018091AE01F9
:100A7000981770F5E091AF0181E08E0F8093AF0180
:100A8000F0E0E257FE4F80818093BB0085EC86C08A
:100A900080938D018EC0E091AF0181E08E0F809335
:100AA000AF018091BB00F0E0E257FE4F8083909150
:100AB000AF018091AE016EC0E091AF0181E08E0F79
:100AC0008093AF018091BB00F0E0E257FE4F80833E
:100AD0008091BF0181116DC081E08093BE0184EAE5
:100AE00061C083E08093C00110928C01CFCF8091D0
:100AF0008C01803208F051C0E0918C0181E08E0FB2
:100B000080938C018091BB00F0E0E459FE4F80831C
:100B1000BDCF85EC8093BC001092C00180918C0108
:100B2000803230F4E0918C01F0E0E459FE4F108205
:100B300060918C0170E0E091BA01F091BB018CE60C
:100B400091E0099510928C0136C084E08093C00139
:100B500010926B0110926A01E091BC01F091BD010D
:100B6000099580916A01811105C081E080936A0135
:100B700010924A01E0916B0181E08E0F80936B012E
:100B8000F0E0E65BFE4F80818093BB0090916B01AB
:100B900080916A01981708F479CF85E88093BC00AA
:100BA0000AC085EC8093BC001092C00104C0109272
:100BB0008D010E949602FF91EF91BF91AF919F919D
:100BC0008F917F916F915F914F913F912F910F90F6
:100BD0000FBE0F901F9018951092CA011092C90174
:100BE00088EE93E0A0E0B0E08093CB019093CC013D
:100BF000A093CD01B093CE0182E191E09093C80122
:100C00008093C7011092D4011092DA011092E10191
:100C10001092E2011092E3011092E40181E08093CE
:100C2000E0018093DD011092DE0192E09093DF01FC
:100C30008093D30182E190E09093D8018093D70113
:100C40000E948D079093DC018093DB01009761F097
:100C500022E1FC0111922A95E9F786E090E0909359
:100C6000D6018093D50108C01092D8011092D70107
:100C70001092D6011092D5018BE08093D90180911A
:100C8000D401882341F061E08BE00E94700160E0B4
:100C90008BE00E942301EFEAF0E0E491F0E0EE0F38
:100CA000FF1FE656FF4F859194919093E601809344
:100CB000E501E1E9F0E0E491E093E701089578943B
:100CC00084B5826084BD84B5816084BD85B5826051
:100CD00085BD85B5816085BD80916E008160809302
:100CE0006E0010928100809181008260809381006B
:100CF000809181008160809381008091800081607B
:100D0000809380008091B10084608093B1008091D5
:100D1000B00081608093B00080917A0084608093FD
:100D20007A0080917A00826080937A0080917A00C4
:100D3000816080937A0080917A00806880937A0045
:100D40001092C1008091D90187FD08C061E00E9426
:100D5000700160E08091D9010E94230181E08093BD
:100D6000D4016091DA01673921F12091DB013091E2
:100D7000DC01615031F070E08FEF96E90E9473075B
:100D800002C060E070E0F9014091D7015091D801B4
:100D9000CF01821B930B8417950740F44081469F37
:100DA000C001479F900D11249193EECF87E9809366
:100DB000DA01C0E0D0E020E040E06AEFCE010E941E
:100DC00088002196C630D105B1F78091DB01909162
:100DD000DC01892B11F00E94D1011092C401109204
:100DE000C3011092C2011092C1011092C00181E0B2
:100DF0008093BF011092BE0161E082E10E94230155
:100E000061E083E10E9423018091B9008E7F80938D
:100E1000B9008091B9008D7F8093B90088E48093F8
:100E2000B80085E48093BC0088EF90E09093BD010A
:100E30008093BC0189EF90E09093BB018093BA014D
:100E400080E28093BA0088E194E09093C601809399
:100E5000C50100E010E0809104018130A9F018F094
:100E6000823091F016C00E948E0320E040E06FEFC8
:100E700082E090E00E94880020E040E06FEF83E095
:100E800090E00E94880011C00E948E030E9414030B
:100E90000CC0C0E0D0E020E040E060E0CE010E9465
:100EA00088002196C630D105B1F78091DB01909181
:100EB000DC01892B11F00E94D1010115110559F2B5
:100EC0000E940000C8CF8091DB019091DC01009767
:100ED00011F00E9425088091D90187FD03C060E0D0
:100EE0000C9470010895AA1BBB1B51E107C0AA1FF7
:100EF000BB1FA617B70710F0A61BB70B881F991FBB
:100F00005A95A9F780959095BC01CD010895EE0FF3
:100F1000FF1F0590F491E02D09940F931F93CF9339
:100F2000DF938230910510F482E090E0E091EA01D5
:100F3000F091EB0120E030E0A0E0B0E0309719F153
:100F4000408151810281138148175907C8F08417E5
:100F5000950769F4109731F012960C931297139637
:100F60001C9327C00093EA011093EB0122C02115C6
:100F7000310519F04217530718F49A01BD01EF012A
:100F8000DF01F801DBCF21153105F9F0281B390B02
:100F90002430310580F48A819B816115710521F02F
:100FA000FB019383828304C09093EB018093EA0159
:100FB000FE01329644C0FE01E20FF31F819391932C
:100FC00022503109398328833AC02091E8013091B9
:100FD000E901232B41F420910A0130910B01309358
:100FE000E9012093E80120910801309109012115C0
:100FF000310541F42DB73EB740910C0150910D01E0
:10100000241B350BE091E801F091E901E217F307A9
:10101000A0F42E1B3F0B2817390778F0AC014E5F68
:101020005F4F2417350748F04E0F5F1F5093E901BB
:101030004093E8018193919302C0E0E0F0E0CF019A
:10104000DF91CF911F910F910895CF93DF93009778
:1010500009F481C0FC01329713821282A091EA0147
:10106000B091EB01109781F420813181820F931FA1
:101070002091E8013091E9012817390751F5F093E3
:10108000E901E093E80167C0ED0120E030E0CE1710
:10109000DF0740F44A815B819E0141155105F1F063
:1010A000EA01F5CFD383C28340815181840F951F1C
:1010B000C817D90759F488819981840F951F029622
:1010C000918380838A819B8193838283211531055B
:1010D00029F4F093EB01E093EA013DC0E901FB83C1
:1010E000EA8349915991C40FD51FEC17FD0761F4AC
:1010F00080819181840F951F0296E90199838883ED
:10110000828193819B838A83E0E0F0E012968D9147
:101110009C911397009719F0FD01DC01F7CF8D9199
:101120009C9111979D012E5F3F4F820F931F20913D
:10113000E8013091E9012817390769F4309729F45B
:101140001092EB011092EA0102C013821282B09356
:10115000E901A093E801DF91CF91089581E090E04B
:10116000F8940C94B30810E0CDE5D0E004C0FE0183
:101170000E9487072196CE35D107C9F7F894FFCF93
:101180000000005A0000005A0000EC01800000003E
:101190000000FF02F4021103C802EC02D802C902E7
:107E0000112484B714BE81FFF0D085E080938100F7
:107E100082E08093C00088E18093C10086E0809377
:107E2000C20080E18093C4008EE0C9D0259A86E02C
:107E300020E33CEF91E0309385002093840096BBD3
:107E4000B09BFECF1D9AA8958150A9F7CC24DD24C4
:107E500088248394B5E0AB2EA1E19A2EF3E0BF2EE7
:107E6000A2D0813461F49FD0082FAFD0023811F036
:107E7000013811F484E001C083E08DD089C08234E0
:107E800011F484E103C0853419F485E0A6D080C0E4
:107E9000853579F488D0E82EFF2485D0082F10E0AE
:107EA000102F00270E291F29000F111F8ED06801E7
:107EB0006FC0863521F484E090D080E0DECF843638
:107EC00009F040C070D06FD0082F6DD080E0C81688
:107ED00080E7D80618F4F601B7BEE895C0E0D1E017
:107EE00062D089930C17E1F7F0E0CF16F0E7DF06D8
:107EF00018F0F601B7BEE89568D007B600FCFDCFD4
:107F0000A601A0E0B1E02C9130E011968C91119780
:107F100090E0982F8827822B932B1296FA010C0160
:107F200087BEE89511244E5F5F4FF1E0A038BF0790
:107F300051F7F601A7BEE89507B600FCFDCF97BE46
:107F4000E89526C08437B1F42ED02DD0F82E2BD052
:107F50003CD0F601EF2C8F010F5F1F4F84911BD097
:107F6000EA94F801C1F70894C11CD11CFA94CF0C13
:107F7000D11C0EC0853739F428D08EE10CD085E9AC
:107F80000AD08FE07ACF813511F488E018D01DD067
:107F900080E101D065CF982F8091C00085FFFCCF94
:107FA0009093C60008958091C00087FFFCCF809118
:107FB000C00084FD01C0A8958091C6000895E0E648
:107FC000F0E098E1908380830895EDDF803219F02E
:107FD00088E0F5DFFFCF84E1DECF1F93182FE3DFCA
:107FE0001150E9F7F2DF1F91089580E0E8DFEE27F6
:047FF000FF270994CA
:027FFE00040479
:0400000300007E007B
:00000001FF